:040000006BEF13F09F
:080008000000000000000000F0
:100010000000000000000000046ED8CF05F0E0CF23
:1000200006F00001E9CF0CF0EACF07F0E1CF08F0CD
:10003000E2CF09F0D9CF0AF0DACF0BF0F3CF12F00C
:10004000F4CF13F0FACF14F0F5CF15F0F6CF16F089
:10005000F7CF17F000C00EF001C00FF002C010F093
:1000600003C011F0F2AA38EF00F0F2B4DEEF01F0B5
:100070009DA03EEF00F09EB0AEEF00F0A0A244EFD6
:1000800000F0A1B271EF00F0F0AA4AEF00F0F0B476
:100090009BEF00F00EC000F00FC001F010C002F0A6
:1000A00011C003F00CC0E9FF07C0EAFF078E08C0CB
:1000B000E1FF09C0E2FF0AC0D9FF0BC0DAFF12C09E
:1000C000F3FF13C0F4FF14C0FAFF15C0F5FF16C00C
:1000D000F6FF17C0F7FF045006C0E0FF05C0D8FFC9
:1000E00010005950592A036A660FE96E000E03206A
:1000F000EA6EEF52D8A480EF00F08C9A81EF00F006
:100100008C8A959AB368BF0EB26EA19259504B0873
:10011000D8A498EF00F0010E01014F6F0001B26BFF
:100120008C8A959A596AB06AB16AA092A1922F6A94
:10013000A1924AEF00F0586AB36BB46B370ECD6EE4
:10014000AA6ACF689E0ECE6E01014F6B9E909D8075
:10015000F094F09AF09400014AEF00F0582A5850B9
:10016000010AD8B4E2EF00F0030AD8B4ECEF00F0D3
:10017000010AD8B4F6EF00F0070AD8B400EF01F096
:10018000010AD8B40AEF01F0030AD8B414EF01F061
:10019000010AD8B41EEF01F00F0AD8B428EF01F01D
:1001A000010AD8B432EF01F0030AD8B43CEF01F0F1
:1001B000010AD8B446EF01F0070AD8B454EF01F0B1
:1001C0007DEF01F09386B39181B6B381CF68BF0E06
:1001D000CE6E9E908BEF01F09386B39381B6B3837E
:1001E000CF68BF0ECE6E9E908BEF01F09386B395D5
:1001F00081B6B385CF68BF0ECE6E9E908BEF01F0B7
:100200009386B49181B6B481CF68BF0ECE6E9E90B6
:100210008BEF01F09386B49381B6B483CF68BF0EA1
:10022000CE6E9E908BEF01F09386B49581B6B48527
:10023000CF68BF0ECE6E9E908BEF01F09386B49781
:1002400081B6B487CF68BF0ECE6E9E908BEF01F063
:100250009386B49981B6B489CF68BF0ECE6E9E9056
:100260008BEF01F09386B49B81B6B48BCF68C70E39
:10027000CE6E9E908BEF01F09386B49D81B6B48DC7
:10028000CF68C70ECE6E9E908BEF01F09386B49F21
:1002900081B6B48F010E01014F6FCF68C70ECE6ECD
:1002A0009E9000018BEF01F0938681A65AEF01F03A
:1002B0005AEF01F0CD6AAA6A9D909E900101502BE1
:1002C00050510508D8A466EF01F0506B036A000195
:1002D000B3515C0FE96E000E0320EA6EB4C0EFFF6D
:1002E000B3510408D8A477EF01F0010EB16F586A3A
:1002F000F196F094F08A8BEF01F0010E01014F6F3F
:10030000CD6AAA6A9D909E90586AF19AF090F08604
:1003100000018BEF01F09E904AEF00F0ECCFFAFF66
:10032000ED52EFCFE8FFF96E120004000F0E006EE1
:10033000002EFED700D000001EBEA2EF01F08D906F
:10034000A3EF01F08D8096901EBCAAEF01F08D9274
:10035000ABEF01F08D8296921EBAB2EF01F08D9450
:10036000B3EF01F08D8496941EB8BAEF01F08B9034
:10037000BBEF01F08B8094901EB6C2EF01F08B9220
:10038000C3EF01F08B8294921EB4CAEF01F08C90FF
:10039000CBEF01F08C8095901EB2D2EF01F08C92E1
:1003A000D3EF01F08C8295921EB0DAEF01F08C94BD
:1003B000DBEF01F08C84959480EF02F00401352D81
:1003C000E4EF01F0D9EF02F0432D17EF02F0492DD1
:1003D00017EF02F007016B2BD8B46C2B6C53D8A429
:1003E000F7EF01F06B51C708D8B0FBEF01F06C6B71
:1003F0006B6B010E6D6F6B35026E6C35036E0236E2
:100400000336FC0E021602504B0FE96E040E032059
:10041000EA6E44C4EFFF45C4ECFF46C4ECFF47C49A
:10042000ECFF0401476B466B456B446B496B1AB498
:1004300030EF02F00701832BD8B4842B84510008DD
:10044000D8B02FEF02F0FF0AD8A42CEF02F08351AE
:10045000F308D8B02FEF02F0846B836B1A84040189
:1004600001014F53D8A43EEF02F0FD0ED76E8F0E60
:10047000D66EF2940401D9EF02F0010195881C9E1A
:1004800083B81C8E93801C9C81B01C8C1C8A938426
:100490001C9881B41C8893881C9681B81C861C8487
:1004A0001C821C805251195CD8A473EF02F0535186
:1004B0001A5CD8A473EF02F054511B5CD8A473EFFC
:1004C00002F055511C5CD8A473EF02F058511D5C2A
:1004D000D8A473EF02F059511E5CD8A473EF02F058
:1004E0005E6B8FEF02F058511D5CD8A47DEF02F0D7
:1004F00059511E5CD8B481EF02F0000195EF01F074
:100500000101010E5E6F1CC055F11BC054F11AC0F1
:1005100053F119C052F11EC059F11DC058F1070125
:1005200072510308D8B49AEF02F072510408D8A4AB
:10053000B9EF02F07EC703F07D517D2BD8B47E2B3E
:100540000A01D76F0350D86F0008D8B0B8EF02F097
:10055000FF0AD8A4B1EF02F0D7512B08D8B0B8EFFA
:1005600002F007017E6B7D6B010E03019F6F0A0194
:1005700007018153D8A4D3EF02F07F2BD8B4802B8E
:1005800080510208D8B0D3EF02F0FF0AD8A4CEEF12
:1005900002F07F51E708D8B0D3EF02F0806B7F6B99
:1005A0001A96010E816FFD0ED76E8F0ED66EF294E5
:1005B0000401F29400014AEF00F00A01C751C90397
:1005C000F3CF01F0F4CF00F0CA03F3500026C85176
:1005D000C903F3500020026E000112000A01AE6B45
:1005E000AF6B4B0EAC25016E000EAD21036E4C0EB1
:1005F000AC25E96E000EAD21EA6EEF68FF0E03C078
:10060000EAFF01C0E9FFEF6EAE6BAE510E08D8A055
:100610002FEF03F0AF6BAF510408D8A02CEF03F01D
:10062000C86BAECAC7FACA6B050EC96F0001DDEC14
:1006300002F001C0B0FA0A01AF510124016E000EB0
:100640000220036E0150AC25E96EAD510320EA6E25
:10065000EF6AAF2B0BEF03F0AE2B05EF03F00001B9
:1006600012000A01AC6B04012E69320E2F6F326B3F
:10067000316B306B0A01AC6BAC513108D8A04FEF35
:1006800003F0D890AC35036ACA0FE96E030E03205D
:10069000EA6EEC6AED52EF6AAC2B3CEF03F000011E
:1006A000D0EF03F007016C696B69716B706B6F6B56
:1006B0006E6B6D6BBFCA72F7746B736B786B776B15
:1006C000766B756B000112000A01B16BB06BB36BF6
:1006D000B26BF2CFB4FAF29EAFCA75FFAECA74FF26
:1006E0007F9C7F9E7F807350B4BFF28EB36BB26FDE
:1006F000B2CAB1FAB06BAE2BD8B4AF2BF2CFB4FA0A
:10070000F29EAFCA75FFAECA74FF7F9C7F9E7F804A
:100710007350B4BFF28EB36BB26FB251B013B3511A
:10072000B113B0CA01F0B1CA02F00001A1EF03F0A9
:100730000A01AD6BAC6BAF6B640EAE6F000164EF82
:1007400003F002C0ADFA01C0ACFA0A01ACCA01F074
:10075000ADCA02F0000106EF04F0276A296A1A0EFA
:10076000286E2B6A2A6E2D6A2C6E2E6A0F015C5140
:10077000800B5C6F000E5D6FC196C198C19A010E2F
:100780000A01AD6F020EAC6F0001EEEC02F00A013F
:10079000AD6BB50EAC6F0001EEEC02F031EF03F083
:1007A00094948B8494968B860A01AB6BAB6BAB51A4
:1007B0006308D8A0E9EF03F0040000D000D09496BD
:1007C0008B86040000D000D094968B96AB2BD7EF8D
:1007D00003F0010E0401436F030E0A01BF6F000115
:1007E00052EC03F0030E0301C56FE80EC46FC96B32
:1007F000320EC86FC76BC66F0401346B336B476A28
:10080000466A456A446A000198EF03F002C042F468
:1008100001C041F456EF14F0F196F094F08AF2948E
:10082000F28A9E909D80A192A0829D8AA38A58EF11
:1008300014F0D00E0101656F646B636B100E626F74
:10084000800E676F666B696B686BD00E0201216F5B
:10085000206B1F6B100E1E6F800E236F226B010E1C
:10086000286F0101A96BA86BA76BA66BAB6BAA6B7A
:10087000EA6EB00EE96E210E036EE60E03C001F0C3
:10088000026A036AEF6E01C0ECFF02C0ECFF03C016
:10089000ECFFD00EB56FB46BB36B100EB26F800E61
:1008A000B76FB66B020EB86FB96BBA6BBB6B010E4C
:1008B000EA6EBC0EE96E230E036E480E03C001F013
:1008C000026A036AEF6E01C0ECFF02C0ECFF03C0D6
:1008D000ECFF500EC16FC06BBF6B100EBE6F800E71
:1008E000C36FC26B030EC46FC56BC66BC76B010EC3
:1008F000EA6EC80EE96E230E036E6A0E03C001F0A5
:10090000026A036AEF6E01C0ECFF02C0ECFF03C095
:10091000ECFF100ECD6FCC6BCB6BCA6FCF6BCE6B79
:10092000040ED06FD16BD26BD36B010EEA6ED40E76
:10093000E96E230E036E880E03C001F0026A036A9B
:10094000EF6E01C0ECFF02C0ECFF03C0ECFF900EA5
:10095000D96FD86BD76B100ED66FDB6BDA6B050EC9
:10096000DC6F060EDD6FDE6BDF6B010EEA6EE00EF4
:10097000E96E230E036E920E03C001F0026A036A51
:10098000EF6E01C0ECFF02C0ECFF03C0ECFFD00E25
:10099000E56FE46BE36B100EE26FE76BE66B070E3F
:1009A000E86FE96BEA6BEB6B010EEA6EEC0EE96E39
:1009B000230E036EB00E03C001F0026A036AEF6EED
:1009C00001C0ECFF02C0ECFF03C0ECFF800EF16F32
:1009D000F06BEF6B100EEE6FF36BF26B080EF46FB3
:1009E000F56BF66BF76B010EEA6EF80EE96E230EEF
:1009F000036EBA0E03C001F0026A036AEF6E01C013
:100A0000ECFF02C0ECFF03C0ECFFC00EFD6FFC6BFF
:100A1000FB6B100EFA6FFF6BFE6B080E0201006F8E
:100A2000016B026B036B020EEA6E040EE96E230E7D
:100A3000036EBA0E03C001F0026A036AEF6E01C0D2
:100A4000ECFF02C0ECFF03C0ECFFD00E096F086B97
:100A5000076B100E066F0B6B0A6B010E0C6F0D6BA4
:100A60000E6B0F6B020EEA6E100EE96E240E036E13
:100A7000020E03C001F0026A036AEF6E01C0ECFFD0
:100A800002C0ECFF03C0ECFF000104EF06F0080E0B
:100A900002012D6F2C6B180E2B6F2A6B400E2F6FDF
:100AA0002E6B316B306B080EE96FE86BE76FE66B0E
:100AB000400EEB6FEA6B010EF06FF16B716B706BB8
:100AC0006F6B6E6B736B726B020EEA6E780EE96E73
:100AD000210E036EE60E03C001F0026A036AEF6E98
:100AE00001C0ECFF02C0ECFF03C0ECFF080E7D6FFD
:100AF0007C6B7B6F7A6B400E7F6F7E6B020E806F1C
:100B0000030E816F826B836B020EEA6E840EE96EB8
:100B1000240E036E0C0E03C001F0026A036AEF6E2E
:100B200001C0ECFF02C0ECFF03C0ECFF896B886BD7
:100B3000080E876F866B8B6B8A6B040E8C6F8D6BC8
:100B40008E6B8F6B020EEA6E900EE96E240E036EB2
:100B5000160E03C001F0026A036AEF6E01C0ECFFDB
:100B600002C0ECFF03C0ECFF956B946B180E936F03
:100B7000926B400E976F966B010E986F996B9A6B04
:100B80009B6B020EEA6E9C0EE96E240E036E3E0E07
:100B900003C001F0026A036AEF6E01C0ECFF02C0FD
:100BA000ECFF03C0ECFF080EA16FA06B9F6B9E6B68
:100BB000400EA36FA26B010EA46FA56BA66BA76B73
:100BC000020EEA6EA80EE96E240E036E640E03C0D8
:100BD00001F0026A036AEF6E01C0ECFF02C0ECFF95
:100BE00003C0ECFF000106EF06F0020E0101516F99
:100BF0003F0E576F5669596F58695B6B5A6B5D6B47
:100C00005C6B000119EF04F047EF05F05AEF14F0A8
:100C10001C681B681A6819681E681D685CEF14F070
:100C20000A0EEA6EAB0EE96EEF50D8B429EF06F06B
:100C3000060E016EBF0E006E0400002EFDD7012EC1
:100C4000F9D77A0E006E002EFED700D00400EF2EEA
:100C5000EFD762EF14F0820ED56EFD0ED76E8F0EB9
:100C6000D66EF294F28A64EF14F004013A6B396B99
:100C7000386B376B3E6B3D6B3C6B3B6B4A6B406B31
:100C80003F6B07016B3D4EEF06F06C3D4EEF06F0FB
:100C9000030E0401366F5EEF06F007016D53D8B402
:100CA00058EF06F0C80E04014A6F5CEF06F007012A
:100CB000010E6B2504014A6F020E366F00017DEFB5
:100CC00014F0D8B268EF06F00A0EEA6ECD0EE96EA7
:100CD000006A016A026A036A0A01CD6BCE6BCF6BB0
:100CE000D06BCC51CB11CA11C911D8B4ADEF06F0FD
:100CF000200ED16FD890C537C637C737C837CD3724
:100D0000CE37CF37D037CC51D05DD8A494EF06F092
:100D1000CB51CF5DD8A494EF06F0CA51CE5DD8A4D4
:100D200094EF06F0C951CD5DD8A0A6EF06F0C951E9
:100D3000CD5FCA51D8A0CA3DCE5FCB51D8A0CB3D24
:100D4000CF5FCC51D8A0CC3DD05FD88000360136E3
:100D500002360336D12F7AEF06F0CDCAEFFFCECAA6
:100D6000ECFFCFCAECFFD0CAECFF00011200040177
:100D70004053D8A4E4EF06F04A513F5DD8B0E4EF09
:100D800006F03F35026E4035036E02360336FC0E28
:100D9000021602504B0FE96E040E0320EA6EEFCFED
:100DA00000F0ECCF01F0ECCF02F0ECCF03F00050FC
:100DB0003B2701503C2302503D2303503E233F2B51
:100DC000D8B4402B0AEF07F04053D8A4EDEF06F05B
:100DD0004A513F5DD8A00AEF07F0D8923EC4C8FA46
:100DE0003DC4C7FA3CC4C6FA3BC4C5FA0A01CC6B81
:100DF000CB6BCA6B4AC4C9FA000161EC06F003C0B0
:100E00003AF402C039F401C038F400C037F4030EDC
:100E10000401366F000186EF14F00A01D16BD26B2A
:100E2000010ED36FDA6AD96A0A0ED66FC90ED56F72
:100E30000A0EEA6ECD0EE96ED6CAE2FFD5CAE1FF10
:100E4000D3CAD4FAD890E550EE02F350D123F4502F
:100E5000D223D42F22EF07F0D1CADEFFD2CAD1FAB3
:100E6000D26BD8B0D22BD52BD8B4D62BD32BD35111
:100E70000508D8A418EF07F0000112000A01BC6BA6
:100E8000BB6BC06BBF6BBE6BBD6BC46BC36BC26B0C
:100E9000C16BBA510301A55DD8A0DCEF07F0D8A45F
:100EA0006FEF07F00A01B9510301A45DD8A0DCEF90
:100EB00007F0D8A46FEF07F00A01B8510301A35D52
:100EC000D8A0DCEF07F0D8A46FEF07F0A2510A0119
:100ED000B75DD8A003D00301DCEF07F003010A01DE
:100EE000B7510301A25D0A01C16FB8510301A359B3
:100EF0000A01C26FB9510301A4590A01C36FBA5163
:100F00000301A5590A01C46F41C400F042C401F0B5
:100F1000026A036A03C0C8FA02C0C7FA42C4C6FA2A
:100F200041C4C5FAC4CACCFAC3CACBFAC2CACAFA07
:100F3000C1CAC9FA03C0D0FA02C0CFFA42C4CEFA7D
:100F400041C4CDFA00010DEC07F003C0C0FA02C0A5
:100F5000BFFA01C0BEFA00C0BDFAD892C0CAC8FA32
:100F6000BFCAC7FABECAC6FABDCAC5FA0A01CC6B67
:100F7000CB6B030ECA6FE80EC96F000161EC06F07F
:100F800003C0C0FA02C0BFFA01C0BEFA00C0BDFA79
:100F9000BECABCFABDCABBFA0A01BBCAC5FAC51FA4
:100FA000BCCAC6FAC61F010EC525BB6F000EC621FE
:100FB000BC6F38EF08F00301A2510A01B75DC16FA1
:100FC0000301A3510A01B859C26F0301A4510A01D8
:100FD000B959C36F0301A5510A01BA59C46F41C47D
:100FE00000F042C401F0026A036A03C0C8FA02C0FA
:100FF000C7FA42C4C6FA41C4C5FAC4CACCFAC3CAC5
:10100000CBFAC2CACAFAC1CAC9FA03C0D0FA02C02E
:10101000CFFA42C4CEFA41C4CDFA00010DEC07F07C
:1010200003C0C0FA02C0BFFA01C0BEFA00C0BDFAD8
:10103000D892C0CAC8FABFCAC7FABECAC6FABDCAE1
:10104000C5FA0A01CC6BCB6B030ECA6FE80EC96FF1
:10105000000161EC06F003C0C0FA02C0BFFA01C093
:10106000BEFA00C0BDFABECABCFABDCABBFA0A01CC
:10107000BBCA01F0BCCA02F0000112000A01B06B49
:10108000AF6BB26BB16BB46BB36BAECABAFAADCA2D
:10109000B9FAACCAB8FAABCAB7FA00013EEC07F02D
:1010A00002C0B0FA01C0AFFA0A01AFCA01F0B0CA7B
:1010B00002F0000112000A01BF51016ABE5DD8B002
:1010C00066EF08F0BECA00F073EF08F0006A080E81
:1010D000C06FBE370036BF51005CD8B0006E01361D
:1010E000C02F69EF08F00001CBEF08F00A01C16BD7
:1010F000C16BC1510408D8A095EF08F0C151BF25BC
:10110000016E000EC021036EC151BD25E96E000EB7
:10111000BE21EA6EEFCFC4FA03C0EAFF01C0E9FFC7
:10112000C4CAEFFFC12B79EF08F0000112000A01D9
:10113000B951BA11D8A49FEF08F08FEF09F04B0E08
:10114000B725E96E000EB821EA6EEF52D8A4B4EFCD
:1011500008F04C0EB725E96E000EB821EA6EEF508C
:101160000E08D8B4D1EF08F04C0EB725E96E000E8A
:10117000B821EA6EEFCFBBFA4B0EB725E96E000E31
:10118000B821EA6E010EEF5CBD6FBE6F0E0EBF6F31
:1011900000015BEF08F000500A01BB5DD8A4D5EF59
:1011A00008F08FEF09F08FEF09F04B0EB725E96ECD
:1011B000000EB821EA6EEF50FF08D8A41CEF09F02A
:1011C0004B0EB725016E000EB821036E4C0EB725ED
:1011D000E96E000EB821EA6EEF6A000E03C0EAFF66
:1011E00001C0E9FFEF6E4C0EB725E96E000EB82185
:1011F000EA6EC86BEFCFC7FACA6B050EC96F000164
:10120000DDEC02F002C003F001500A01B725016EC7
:10121000B851032201C0BBFA03C0BCFABACABEFA75
:10122000B9CABDFA03C0C0FA01C0BFFA000176EC2A
:1012300008F08EEF09F00A014C0EB725E96E000E9A
:10124000B821EA6EEF500E08D8A461EF09F04B0EFA
:10125000B725E96E000EB821EA6EEF52D8B461EFFF
:1012600009F04C0EB725E96E000EB821EA6EEF6A60
:101270004C0EB725E96E000EB821EA6EC86BEFCFB1
:10128000C7FACA6B050EC96F0001DDEC02F002C09F
:1012900003F001500A01B725016EB851032201C0C5
:1012A000BBFA03C0BCFABACABEFAB9CABDFA03C0D7
:1012B000C0FA01C0BFFA000176EC08F08EEF09F029
:1012C0000A014C0EB725E96E000EB821EA6EEF2A2E
:1012D0004C0EB725E96E000EB821EA6EC86BEFCF51
:1012E000C7FACA6B050EC96F0001DDEC02F002C03F
:1012F00003F001500A01B725016EB851032201C065
:10130000BBFA03C0BCFABACABEFAB9CABDFA03C076
:10131000C0FA01C0BFFA000176EC08F00A01000132
:1013200012000A01B26BB46BB36B316A306AACCA9B
:1013300033F0ABCA32F07A0EAD6F010EB26FB2511C
:101340000408D8A0BFEF09F0036AB251AD0F016ED7
:101350000A0E032203C0B6FA010EB25D036A300F13
:10136000E96E000E0320EA6EEFCFB7FAB6CAEAFFC5
:1013700001C0E9FFB7CAEFFFB22B9FEF09F0B86BCE
:10138000B50EB76F0A0EBA6FAD0EB96F000197ECCC
:1013900008F05DEF0CF00A01B46BB66BB56BAECA2A
:1013A000BAFAADCAB9FAACCAB8FAABCAB7FA000110
:1013B0003EEC07F002C0B6FA01C0B5FA07016D5362
:1013C000D8B4EFEF09F0B6CAA1F3B5CAA0F3AECA1C
:1013D000A5F3ADCAA4F3ACCAA3F3ABCAA2F3356AB2
:1013E000346AB6CA37F0B5CA36F0760E0A01AF6F66
:1013F000010EB46FB4510408D8A01AEF0AF0036AC2
:10140000B451AF0F016E0A0E032203C0B8FA010EE9
:10141000B45D036A340FE96E000E0320EA6EEFCF6D
:10142000B9FAB8CAEAFF01C0E9FFB9CAEFFFB42BA5
:10143000FAEF09F0B86BB50EB76F0A0EBA6FAF0EC0
:10144000B96F000197EC08F012000A01B46BB66B9B
:10145000B56B0301C32D33EF0AF0C5C3B6FAC4C39D
:10146000B5FA37EF0AF032C4B6FA31C4B5FAC6514C
:101470000A01B525016E0301C7510A01B621036EA9
:101480000350AC5DD8A04DEF0AF0D8A466EF0AF087
:10149000AB51015CD8A066EF0AF00301C8510A0104
:1014A000B55D006E0301C9510A01B659036E00C053
:1014B00001F0AC51035CD8A06DEF0AF0D8A466EF40
:1014C0000AF00150AB5DD8B06DEF0AF003019D6BDF
:1014D0009C6B1A9872EF0AF00A0103019D6B010ED2
:1014E0009C6F1A88AECA31F0ADCA30F0D890303651
:1014F00031369C5130129D513112ACCA33F0ABCA17
:1015000032F0720E0A01AF6F010EB46FB4510408CD
:10151000D8A0A6EF0AF0036AB451AF0F016E0A0E0D
:10152000032203C0B8FA010EB45D036A300FE96EFE
:10153000000E0320EA6EEFCFB9FAB8CAEAFF01C085
:10154000E9FFB9CAEFFFB42B86EF0AF0B86BB50E0E
:10155000B76F0A0EBA6FAF0EB96F000197EC08F0C3
:101560000A01B86BB50EB76F0A0EBA6FAF0EB96F3E
:10157000000197EC08F08DEF0CF00A01AD6BAE6B3B
:10158000B26BB16BB06BAF6BE80E0301C425016E9B
:10159000030EC521036E03500A01AC5DD8A0D9EF3C
:1015A0000AF0D8A4F0EF0AF0AB51015CD8A0F0EF3C
:1015B0000AF0E80E0301C45D006E030EC559036E08
:1015C00000C001F00A01AC51035CD8A0F2EF0AF0B0
:1015D000D8A4F0EF0AF00150AB5DD8B0F2EF0AF0FA
:1015E00093EF0BF004012E2B520E3325016E030EE8
:1015F0003421036E03500A01AC5DD8A00BEF0BF051
:10160000D8A408EF0BF00150AB5DD8A00BEF0BF0A6
:1016100004012E6B0A010301C353D8A41CEF0BF085
:1016200004012F512E5DD8A019EF0BF02E6B010E87
:10163000306F25EF0BF0030104012E513108D8B0B3
:1016400025EF0BF02E6B010E306FD8902E35036A0C
:10165000CA0FE96E030E0320EA6EACCAECFFED522E
:10166000ABCAEFFF302D48EF0BF00301C353D8A4F2
:1016700041EF0BF02FC4AEFA0401306B46EF0BF0D4
:101680000301320E0A01AE6F0401306B4DEF0BF017
:10169000010E2E250A01AE6F04010A01AD6BAE5199
:1016A000AD5DD8B069EF0BF0D890AD35036ACA0FC5
:1016B000E96E030E0320EA6EECCF03F0ED52EF501B
:1016C000AF270350B023000EB123B223AD2B4FEF51
:1016D0000BF0AECA00F0016A026A036A03C0B6FAF0
:1016E00002C0B5FA01C0B4FAAECAB3FAD892B2CA0F
:1016F000C8FAB1CAC7FAB0CAC6FAAFCAC5FA03C0B7
:10170000CCFA02C0CBFA01C0CAFAAECAC9FA0001CB
:1017100061EC06F001C032F400C031F432C434F49C
:1017200031C433F40A01000193EF0CF00A01B06BED
:101730004B6A4A6A32C449F031C448F0770EAB6F45
:10174000010EB06FB0510408D8A0C2EF0BF0036ACD
:10175000B051AB0F016E0A0E032203C0B2FA010EA4
:10176000B05D036A480FE96E000E0320EA6EEFCF0A
:10177000B3FAB2CAEAFF01C0E9FFB3CAEFFFB02B68
:10178000A2EF0BF0B86BB50EB76F0A0EBA6FAB0EC7
:10179000B96F000197EC08F095EF0CF00A01B46BFB
:1017A000A5C353F0A4C352F0A3C351F0A2C350F099
:1017B000AECA57F0ADCA56F0ACCA55F0ABCA54F039
:1017C000670EAF6F010EB46FB4510408D8A004EFD8
:1017D0000CF0036AB451AF0F016E0A0E032203C06E
:1017E000B6FA010EB45D036A500FE96E000E0320D5
:1017F000EA6EEFCFB7FAB6CAEAFF01C0E9FFB7CA8F
:10180000EFFFB42BE4EF0BF0B86BB50EB76F0A0E19
:10181000BA6FAF0EB96F000197EC08F0690E0A01BC
:10182000AF6F010EB46FB4510408D8A033EF0CF0C1
:10183000036AB451AF0F016E0A0E032203C0B6FA59
:10184000010EB45D036A540FE96E000E0320EA6EC8
:10185000EFCFB7FAB6CAEAFF01C0E9FFB7CAEFFF98
:10186000B42B13EF0CF0B86BB50EB76F0A0EBA6F4E
:10187000AF0EB96F000197EC08F00301AC6B0001EB
:10188000C5EF0CF0030198511F08D8A45EEF0CF0CF
:101890003AC4AEFA39C4ADFA38C4ACFA37C4ABFABC
:1018A00000013EEC08F002C0C2F301C0C1F3C2C3A4
:1018B000ACFAC1C3ABFA91EF09F0030198512008CB
:1018C000D8A46FEF0CF03AC4AEFA39C4ADFA38C4FC
:1018D000ACFA37C4ABFA0001CBEC09F00301985124
:1018E0002108D8A49EEF0CF03AC4AEFA39C4ADFA80
:1018F00038C4ACFA37C4ABFA00013EEC08F002C0C1
:10190000C2F301C0C1F3C2C3ACFAC1C3ABFA9BC3FB
:10191000AEFA9AC3ADFA25EF0AF0C2C3ACFAC1C35E
:10192000ABFABDEF0AF096EF0BF0050E0A01BF6FA0
:10193000000152EC03F0010E0301996F9851220847
:10194000D8A4B5EF0CF03AC4AEFA39C4ADFA38C435
:10195000ACFA37C4ABFA0001CBEC09F0050E0A0172
:10196000BF6F000152EC03F0030198512308D8A483
:10197000CCEF0CF03AC4AEFA39C4ADFA38C4ACFAC4
:1019800037C4ABFA0001CEEF0BF0050E0A01BF6FB2
:10199000000152EC03F00301010E0401366F240E26
:1019A0000301986F00018FEF14F04B0E0A01AB2575
:1019B000E96E000EAC21EA6EEF50FF08D8A4E5EF07
:1019C0000CF0000E016EE7EF0CF0010E016E00014D
:1019D00012004B0E0A01B125E96E000EB221EA6E2B
:1019E000EF50FF08D8A4F7EF0CF05CEF0DF04B0EB2
:1019F000B125E96E000EB221EA6EC86BEFCFC7FACF
:101A0000CA6B050EC96F0001DDEC02F002C003F0E5
:101A100001500A01B125016EB251032201C0B5FA8D
:101A200003C0B6FA03C0BEFA01C0BDFAB4CAC0FA18
:101A3000B3CABFFA000176EC08F04B0E0A01B125DB
:101A4000E96E000EB221EA6EEFCFB5FA4C0EB12569
:101A5000E96E000EB221EA6EEF50B55DD8A441EFF9
:101A60000DF04B0EB125E96E000EB221EA6EEF6863
:101A70004C0EB125E96E000EB221EA6EEF685CEF04
:101A80000DF04B0EB125E96E000EB221EA6EEF505B
:101A90000E08D8A455EF0DF04B0EB125E96E000EDF
:101AA000B221EA6EEF6A5CEF0DF04B0EB125E96EE4
:101AB000000EB221EA6EEF2A000112000A01AB6BA0
:101AC000AC6BAD6BAB6BAB510408D8A073EF0DF0F2
:101AD000036AAB51610FE96E000E0320EA6EEF6AF4
:101AE000AB2B63EF0DF0B26BB50EB16FB46B610E43
:101AF000B36F0001E9EC0CF00A01AB6BAB510408C9
:101B0000D8A0DAEF0EF0AB510F0DF350036A660F59
:101B1000E96E000E0320EA6EEF6AABCAACFAAC3194
:101B2000AC6BD8B0AC8FAC35AC6BD8B0AC81AB5132
:101B30000F0DF350010F036A660FE96E000E0320CC
:101B4000EA6EACCAEFFFABCAACFAAC3BAC37AC3711
:101B5000C00EAC17AC35AC6BD8B0AC81AB510F0D2F
:101B6000F350020F036A660FE96E000E0320EA6E5F
:101B7000ACCAEFFFABCAACFAAC3BAC37E00EAC176B
:101B8000AC35AC6BD8B0AC81AB510F0DF350030F3B
:101B9000036A660FE96E000E0320EA6EACCAEFFF1F
:101BA000036AAB51610FE96E000E0320EA6EEFCFBE
:101BB000ADFAAD31AD6BD8B0AD8FAD35AD6BD8B042
:101BC000AD81AB510F0DF350040F036A660FE96E40
:101BD000000E0320EA6EADCAEFFF036AAB51610F3E
:101BE000E96E000E0320EA6EEFCFADFAAD3BAD37E4
:101BF000AD37C00EAD17AD35AD6BD8B0AD81AB51C3
:101C00000F0DF350050F036A660FE96E000E0320F7
:101C1000EA6EADCAEFFF036AAB51610FE96E000EC9
:101C20000320EA6EEFCFADFAAD3BAD37E00EAD1756
:101C3000AD35AD6BD8B0AD81AB510F0DF350060F84
:101C4000036A660FE96E000E0320EA6EADCAEFFF6D
:101C5000036AAB51610FE96E000E0320EA6EEFCF0D
:101C6000ADFAAD3BF00EAD17AD35AD6BD8B0AD8173
:101C7000AB510F0DF350070F036A660FE96E000EAC
:101C80000320EA6EADCAEFFF036AAB51610FE96E44
:101C9000000E0320EA6EEFCFADFAAD37AD37AD37AA
:101CA000F80EAD17AD35AD6BD8B0AD81AB510F0DA2
:101CB000F350080F036A660FE96E000E0320EA6E08
:101CC000ADCAEFFF036AAB51610FE96E000E03204E
:101CD000EA6EEFCFADFAAD37AD37FC0EAD17AD35CF
:101CE000AD6BD8B0AD81AB510F0DF350090F036A46
:101CF000660FE96E000E0320EA6EADCAEFFF036ABD
:101D0000AB51610FE96E000E0320EA6EEFCFADFA22
:101D1000D890AD37AD35AD6BD8B0AD81AB510F0DAF
:101D2000F3500A0F036A660FE96E000E0320EA6E95
:101D3000ADCAEFFF036AAB51610FE96E000E0320DD
:101D4000EA6EEFCFADFAAD35AD6BD8B0AD81AB512A
:101D50000F0DF3500B0F036A660FE96E000E0320A0
:101D6000EA6EADCAEFFFAB510F0DF3500C0F036AD3
:101D7000660FE96E000E0320EA6E010EEF6EAB51A6
:101D80000F0DF3500D0F036A660FE96E000E03206E
:101D9000EA6E010EEF6EAB510F0DF3500E0F036A9A
:101DA000660FE96E000E0320EA6E010EEF6EAB2B9C
:101DB0007EEF0DF0596A010E2F6EB06A370EB16ECC
:101DC000B368BF0EB26E01014F6BA192A0820001F9
:101DD000B3EF14F00A01B96BB8CAB9FAF250006E49
:101DE000F29EB6CA75FFB5CA74FFB9CA73FF7F9C6D
:101DF0007F9E7F840F01550E7E6EAA0E7E6E7F82BF
:101E00007FB200EF0FF07F940050F2120A01B52B61
:101E1000D8B4B62BB96BB7CAB9FAF250006EF29EBD
:101E2000B6CA75FFB5CA74FFB9CA73FF7F9C7F9E9F
:101E30007F840F01550E7E6EAA0E7E6E7F827FB26A
:101E40001FEF0FF07F940050F212000139EF0FF0F6
:101E50000A01B46BB36BB2CAB4FAB1CAB3FAB66BC7
:101E6000640EB56FB4CAB8FAB3CAB7FA0001EAEFA4
:101E70000EF015EF10F00A01B36BB36BB3510A0803
:101E8000D8A06CEF0FF0B351060DF350B56BB46FE3
:101E9000020EB425016E000EB521036E0150F30F42
:101EA000E96E020E0320EA6EB151EF24006EB251CA
:101EB000EC20016E000EEC20026E000EEC20ED52C4
:101EC000ED52ED5200C0EFFF01C0ECFF02C0ECFF8D
:101ED000EC6EB32B3EEF0FF000012BEF10F00A0178
:101EE000AB6B010EB26F020EB16F0A0EB46FAC0E87
:101EF000B36F0001E9EC0CF00A01AC51640A000177
:101F0000D8B4B5EF0FF0010AD8B4BAEF0FF00D0A4C
:101F1000D8B4BFEF0FF01B0AD8B4E7EF0FF0180AE0
:101F2000D8B418EF10F01B0AD8B41DEF10F0160A41
:101F3000D8B422EF10F00C0AD8B425EF10F0060A3E
:101F4000D8B42EEF10F0010AD8B458EF10F01C0AE4
:101F5000D8B486EF10F01F0AD8B489EF10F0010A48
:101F6000D8B48FEF10F097EF10F0010E03019E6FC1
:101F70009AEF10F0020E03019E6F9AEF10F0010E1F
:101F80000A01AB6FAB510408D8A0E2EF0FF0010ECD
:101F9000AB5D036A400F016E000E032203C0B2FA6C
:101FA000036AAB51AC0FE96E0A0E0320EA6EEFCF65
:101FB000B3FAB2CAEAFF01C0E9FFB3CAEFFFAB2B25
:101FC000C2EF0FF0010E0301AC6F9AEF10F0010E9B
:101FD0000A01AB6FAB510408D8A00AEF10F0010E54
:101FE000AB5D036A4C0F016E000E032203C0B2FA10
:101FF000036AAB51AC0FE96E0A0E0320EA6EEFCF15
:10200000B3FAB2CAEAFF01C0E9FFB3CAEFFFAB2BD4
:10201000EAEF0FF04DC042F44CC041F442C4B2FAB2
:1020200041C4B1FA000128EF0FF003019AEF10F05C
:10203000030E03019E6F9AEF10F0040E03019E6FD2
:102040009AEF10F003019AEF10F0A1C3B2FAA0C307
:10205000B1FA3BEF0FF003019AEF10F0010E0A0105
:10206000AB6FAB510408D8A051EF10F0010EAB5D7F
:10207000036A380F016E000E032203C0B2FA036A2E
:10208000AB51AC0FE96E0A0E0320EA6EEFCFB3FA44
:10209000B2CAEAFF01C0E9FFB3CAEFFFAB2B31EFD1
:1020A00010F039C0C5F338C0C4F303019AEF10F043
:1020B000010E0A01AB6FAB510408D8A07BEF10F002
:1020C000010EAB5D036A3C0F016E000E032203C0DC
:1020D000B2FA036AAB51AC0FE96E0A0E0320EA6E46
:1020E000EFCFB3FAB2CAEAFF01C0E9FFB3CAEFFF0C
:1020F000AB2B5BEF10F03DC0C7F33CC0C6F33FC055
:10210000C9F33EC0C8F303019AEF10F003019AEF40
:1021100010F0ADCA2FF40301C36B9AEF10F0ADCAF3
:102120002FF4010E0301C36F9AEF10F000010301B9
:102130009AEF10F00001C1EF14F0050E0A01B06F24
:10214000AF6BAE6BAD6BAC6B9488B06B82B8B02BE1
:10215000AB6BAB511108D8A0C6EF10F094968B86EC
:10216000040000D000D0948882B8BAEF10F0D89064
:10217000BBEF10F0D880AC37AD37AE3794968B9666
:10218000040000D000D0AB2BA9EF10F09488B06B06
:1021900082B8B02B040000D000D094968B86040047
:1021A00000D000D094968B969488B06B82B8B02BF8
:1021B000ACCA00F0ADCA01F0AECA02F0AFCA03F07B
:1021C0000001CBEF14F0010E0A01BD6FBD6FBD51D0
:1021D0000908D8A0EFEF10F0BD2BE7EF10F0000ECC
:1021E000016E000112000A01C86BBFCAC7FACA6BB0
:1021F000C80EC96F0001DDEC02F001C0C5FA040E83
:102200000A010124016E000E0220036E0150620FCC
:10221000E96E010E0320EA6EECCFC2FAED52EFCF69
:10222000C1FAC86BBFCAC7FACA6BC80EC96F000132
:10223000DDEC02F002C0C6FA01C0C5FA440E0A0184
:10224000C527000EC623C86BC0CAC7FACA6B0C0EDE
:10225000C96F0001DDEC02F001500A01C5270250F0
:10226000C623040EC525016E000EC621036E015063
:10227000620FE96E010E0320EA6EECCFC4FAED5254
:10228000EFCFC3FAC2AF48EF11F01E9EC4BF1E8E3F
:10229000C2AD4EEF11F01E9CC4BD1E8CC2AB54EFFC
:1022A00011F01E9AC4BB1E8AC2A95AEF11F01E98E3
:1022B000C4B91E88C2A760EF11F01E96C4B71E866F
:1022C000C2A566EF11F01E94C4B51E84C2A36CEFC4
:1022D00011F01E92C4B31E82C2A172EF11F01E90C3
:1022E000C4B11E80C1AF78EF11F01D9EC3BF1D8E1B
:1022F000C1AD7EEF11F01D9CC3BD1D8CC1AB84EF41
:1023000011F01D9AC3BB1D8AC1A98AEF11F01D9857
:10231000C3B91D88C1A790EF11F01D96C3B71D86E4
:10232000C1A596EF11F01D94C3B51D84C1A39CEF08
:1023300011F01D92C3B31D82C1A1A2EF11F01D9037
:10234000C3B11D8000011200F3EC10F0030E0A016E
:10235000BF6F000152EC03F0010E0401436F030153
:10236000996B000E016E00011200F3EC10F00401F5
:10237000436B03019F6B0401366B220E0301986FC0
:10238000000E016E00011200F3EC10F0000E016E61
:102390001200F3EC10F0040E0A01BF6F000152ECC2
:1023A00003F0010E0401436F000E016E00011200E4
:1023B000F3EC10F0000E016E1200F3EC10F01A9422
:1023C0000301992DE8EF11F0000E016EFFEF11F0FF
:1023D0000401436B0301AC2DF5EF11F00401366BE2
:1023E000230E0301986FFDEF11F09A2BD8B49B2BAD
:1023F0000401366B210E0301986F000E016E00017F
:102400001200F3EC10F0000E016E1200F3EC10F06D
:10241000000E016E12000701816B03019E5102083C
:10242000D8A417EF12F0000E016E1DEF12F000019C
:10243000F3EC10F0000E016E0301000112001A9877
:1024400003019E510208D8A42AEF12F0000E016E7B
:1024500030EF12F00001F3EC10F0000E016E0301FA
:1024600000011200F3EC10F01A981A86000E016EAB
:1024700012000A01B36BB26BB16BB06BB56BB46B8E
:10248000B66BB76BB96BB86BBA6BADCAE9FFAECAC6
:10249000EAFFEFCF00F0ECCF01F0ECCF02F0ECCF91
:1024A00003F000501914B06F01501A14B16F0250AC
:1024B0001B14B26F03501C14B36FBC0EAD25E96E34
:1024C000000EAE21EA6EEFCF00F0ECCF01F0ECCFC2
:1024D00002F0ECCF03F00050B019006E0150B119BA
:1024E000016E0250B219026E0350B319036E00520E
:1024F000D8A495EF12F00152D8A495EF12F0025231
:10250000D8A495EF12F00352D8A495EF12F0C70E9D
:10251000AD25E96E000EAE21EA6EEF52D8A495EF1C
:1025200012F0000E016E68EF13F0B66BB65103089F
:10253000D8A056EF13F0C60EAD25E96E000EAE2101
:10254000EA6EC86BEFCFC7FACA6B0C0EC96F0001F9
:10255000DDEC02F00150440F0A01BB6F000E0220B7
:10256000BC6F060EBB27000EBC23B651BB25016E07
:10257000000EBC21036E0150AD25E96EAE51032063
:10258000EA6EEFCFBAFABA53D8A4D2EF12F0AECABD
:10259000BCFAADCABBFA0001E3EC10F001500A012D
:1025A00068EF13F0C86BBACAC7FACA6B0C0EC96FD2
:1025B0000001DDEC02F002C003F00150440F0A01FB
:1025C000BB6F000E0220BC6FAD51BB25E96EAE5152
:1025D000BC21EA6EEFCFBDFAECCFBEFAECCFBFFA6A
:1025E000ECCFC0FABD51B019006EBE51B119016EE9
:1025F000BF51B219026EC051B319036E0052D8A474
:1026000053EF13F00152D8A453EF13F00252D8A4A1
:1026100053EF13F00352D8A453EF13F0C86BBACAA8
:10262000C7FACA6B0C0EC96F0001DDEC02F0015055
:10263000440F0A01BB6F000E0220BC6F0A0EBB25BF
:10264000016E000EBC21036E0150AD25016EAE512E
:10265000032201C0BBFA03C0BCFA03C0EAFF01C0F9
:10266000E9FFAFCABFFABACAC0FA00018EEC01F0A6
:10267000C60E0A01AD25E96E000EAE21EA6EBACA99
:10268000EFFFBC0EAD25E96E000EAE21EA6EB0CABA
:10269000EFFFB1CAECFFB2CAECFFB3CAECFF56EFD2
:1026A00013F053EF13F0B62B96EF12F0B651040867
:1026B000D8A466EF13F0AECABCFAADCABBFA0001EB
:1026C000E3EC10F001500A0168EF13F0000E016E08
:1026D000000145EF15F0F86AF1949F90A292F192F3
:1026E000D08E078EA786080EAF6E020E7D6EA60EE8
:1026F000AC6E900EAB6E2F6A586A596AA50E5A6E70
:102700005B6AB16BB26B010E01014F6F506B556B81
:10271000546B536B526B576B566B596B586B5B6BAF
:102720005A6B5D6B5C6B5E6B5F6B616B606B020128
:10273000F26F240E0301986F996B9B6B9A6B9D6BE4
:102740009C6B9E6B9F6BA16BA06BA56BA46BA36B2B
:10275000A26BA76BA66BAB6BAA6BA96BA86BAC6BE0
:10276000AE6BAD6BB06BAF6BB46BB36BB26BB16B8D
:10277000B86BB76BB66BB56BBA6BB96BBC6BBB6B3D
:10278000BE6BBD6BC06BBF6BC26BC16B010EC36F09
:102790000401356B366F3A6B396B386B376B3E6BB8
:1027A0003D6B3C6B3B6B406B3F6B426B416B436BD8
:1027B000476B466B456B446B050E486F496B4A6B24
:1027C0000701746B736B786B776B766B756B7A6BD9
:1027D000796B010E7B6F0B0E7C6F7E6B7D6B806B5C
:1027E0007F6B010E816F826F846B836B0F015C5175
:1027F000800B5C6F000E5D6FC196C198C19A01019C
:10280000886B0F015E6B5F6B0001666B676B686BBB
:10281000696B6A6B6B6B6C6B6D6B6E6B6F6B706BFC
:10282000716B726B736B746B756B766B776B786BAC
:10283000796B7A6B7B6B7C6B7D6B7E6B7F6B806B5C
:10284000816B826B836B846B856B866B876B886B0C
:10285000896B8A6B8B6B8C6B8D6B8E6B8F6B906BBC
:10286000916B926B936B946B956B966B976B986B6C
:10287000996B9A6B9B6B9C6B9D6B9E6B9F6BA06B1C
:10288000A16BA26BA36BA46BA56BA66BA76BA86BCC
:10289000A96BAA6BAB6BAC6BAD6BAE6BAF6BB06B7C
:1028A000D1800701856B0001ADEF03F00CEF04F060
:1028B000F5EF05F008EF06F00A0E0A01AB6F000114
:1028C00010EF06F02BEF06F0C00EF212200E0701FB
:1028D000866F400E876F800E886F896B8A6B03014D
:1028E0009E6B04001A981A861E8C04013653D8A4D5
:1028F0007EEF14F0000135EF06F0040136510208B6
:10290000D8A487EF14F00001B7EF06F004013651A8
:102910000308D8A490EF14F0000142EF0CF004017A
:102920000001B12DA0EF14F0B16B010E0A01B86FD8
:10293000020EB76FBA6B5C0EB96F000197EC08F02E
:102940000A01AC6BB50EAB6F0001D5EC0CF0015277
:10295000D8B4B3EF14F0B253D8A4B3EF14F0010E0F
:10296000B26F5EEF0DF0010E0A01AC6F020EAB6F9D
:102970000001D5EC0CF00152D8B4C1EF14F06FEFA8
:102980000FF0948882B8E7EF14F02F52D8A4E7EF45
:1029900014F09DEF10F003C047F402C046F401C0EC
:1029A00045F400C044F404014453D8A4E4EF14F007
:1029B0004553D8A4E4EF14F04653D8A4E4EF14F040
:1029C0004753D8B4E6EF14F0010E496F000103013C
:1029D0009F2D04EF15F09F6B070172510408D8A4D6
:1029E000FAEF14F00401366B1F0E0301986F04EF29
:1029F00015F0070172510308D8A405EF15F0040182
:102A0000366B200E0301986F070103019E51FA0FE8
:102A1000D8B051EF15F0060F000157EF15F0030184
:102A200051EF15F0030151EF15F0030151EF15F0CF
:102A300001015E53D8B44AEF15F05E6B0701856B58
:102A4000010151510701855DD8B049EF15F00A0128
:102A5000C86B85C7C7FACA6BC80EC96F0001DDEC29
:102A600002F002C003F00150620F016E010E03225A
:102A700001C0ABFA03C0ACFA03C0AEFA01C0ADFAB4
:102A800085C7AFFA000139EF12F00701852B20EF5F
:102A900015F00101030151EF15F0030151EF15F09D
:102AA000030196948D74040075EF14F00300E8247C
:102AB000F76AF736C90FF66E2A0EF7220A00F550AC
:102AC000FA6E0800F550F96E1E2A242A302A2A2AA6
:042AD000302A9A2AE4
:0200000400F00A
:0400000001020304F2
:020000040030CA
:0E0000001504792B008991000FC00FE00F400E
:00000001FF
;PIC18F46K80
;CRC=FB7E  CREATED="11-Aug-19 15:24"
