:0400000051EF2CF0A0
:080008000000000000000000F0
:100010000000000000000000046ED8CF05F0E0CF23
:1000200006F00001E9CF0CF0EACF07F0E1CF08F0CD
:10003000E2CF09F0D9CF0AF0DACF0BF0F3CF12F00C
:10004000F4CF13F0FACF14F0F5CF15F0F6CF16F089
:10005000F7CF17F000C00EF001C00FF002C010F093
:1000600003C011F0F2AA38EF00F0F2B4BEEF02F0D4
:100070009DA03EEF00F09EB0CFEF01F0A0A244EFB4
:1000800000F0A1B28DEF01F0F0A64AEF00F0F0B061
:10009000BBEF01F09DAA50EF00F09EBAC4EF04F050
:1000A000A3AA56EF00F0A4BA87EF03F00EC000F049
:1000B0000FC001F010C002F011C003F00CC0E9FF46
:1000C00007C0EAFF078E08C0E1FF09C0E2FF0AC0CF
:1000D000D9FF0BC0DAFF12C0F3FF13C0F4FF14C046
:1000E000FAFF15C0F5FF16C0F6FF17C0F7FF045062
:1000F00006C0E0FF05C0D8FF1000F76A0A0FF66ED1
:10010000010EF7220900F550120000C1814001C024
:10011000804101C0804100C1814001C0804100C1D7
:10012000814000C1814001C0804101C0804100C1C7
:10013000814000C1814001C0804100C1814001C0B7
:10014000804101C0804100C1814001C0804100C1A7
:10015000814000C1814001C0804100C1814001C097
:10016000804101C0804100C1814000C1814001C087
:10017000804101C0804100C1814001C0804100C177
:10018000814000C1814001C0804101C0804100C167
:10019000814000C1814001C0804100C1814001C057
:1001A000804101C0804100C1814000C1814001C047
:1001B000804101C0804100C1814001C0804100C137
:1001C000814000C1814001C0804100C1814001C027
:1001D000804101C0804100C1814001C0804100C117
:1001E000814000C1814001C0804101C0804100C107
:1001F000814000C1814001C0804100C1814001C0F7
:10020000804101C0804100C18140F76A1A0FF66E3B
:10021000020EF7220900F550120000C0C101C3030D
:1002200002C2C60607C705C5C404CC0C0DCD0FCF4E
:10023000CE0E0ACACB0BC90908C8D81819D91BDBBE
:10024000DA1A1EDEDF1FDD1D1CDC14D4D515D7170E
:1002500016D6D21213D311D1D010F03031F133F3BE
:10026000F23236F6F737F53534F43CFCFD3DFF3F0E
:100270003EFEFA3A3BFB39F9F83828E8E929EB2B3E
:100280002AEAEE2E2FEF2DEDEC2CE42425E527E7CE
:10029000E62622E2E323E12120E0A06061A163A33E
:1002A000A26266A6A767A56564A46CACAD6DAF6FCE
:1002B0006EAEAA6A6BAB69A9A86878B8B979BB7B3E
:1002C0007ABABE7E7FBF7DBDBC7CB47475B577B78E
:1002D000B67672B2B373B17170B0509091519353BE
:1002E000529296565797559594549C5C5D9D5F9F8E
:1002F0009E5E5A9A9B5B99595898884849894B8BBE
:100300008A4A4E8E8F4F8D4D4C8C4484854587474D
:100310004686824243834181804001012C512C2B2F
:10032000036A390FE96E010E0320EA6EEF52D8A47A
:100330009DEF01F08C9A9EEF01F08C8A959AB3683C
:10034000BF0EB26EA1922C514B08D8A4B7EF01F0AA
:10035000010E0201226F0101856B8C8A959A2C6B2C
:10036000B06AB16AA092A1920001B66B0101A1929C
:10037000000156EF00F001012B6B866B876B370E87
:10038000CD6EAA6ACF68A50ECE6E0201226B9E903A
:100390009D80F090F096F090000156EF00F0010182
:1003A0002B2B2B51010A0001D8B405EF02F0030AF0
:1003B000D8B410EF02F0010AD8B41BEF02F0070A1C
:1003C000D8B426EF02F0010AD8B431EF02F0030AE4
:1003D000D8B43CEF02F0010AD8B447EF02F00F0A9C
:1003E000D8B452EF02F0010AD8B45DEF02F0030A6C
:1003F000D8B468EF02F0010AD8B473EF02F0070A2C
:10040000D8B482EF02F0ACEF02F093820101869142
:1004100081B28681CF68BF0ECE6E9E90BAEF02F099
:1004200093820101869381B28683CF68BF0ECE6E20
:100430009E90BAEF02F093820101869581B2868583
:10044000CF68BF0ECE6E9E90BAEF02F0938201018C
:10045000879181B28781CF68BF0ECE6E9E90BAEF32
:1004600002F093820101879381B28783CF68BF0E28
:10047000CE6E9E90BAEF02F093820101879581B211
:100480008785CF68BF0ECE6E9E90BAEF02F0938242
:100490000101879781B28787CF68BF0ECE6E9E908D
:1004A000BAEF02F093820101879981B28789CF6800
:1004B000BF0ECE6E9E90BAEF02F093820101879B31
:1004C00081B2878BCF68C70ECE6E9E90BAEF02F0D6
:1004D00093820101879D81B2878DCF68C70ECE6E52
:1004E0009E90BAEF02F093820101879F81B2878FBD
:1004F000010E0201226FCF68C70ECE6E9E900101E1
:10050000BAEF02F0938281A288EF02F088EF02F046
:10051000CD6AAA6A9D909E900201232B2351050863
:10052000D8A494EF02F0236B036A010186512F0FC8
:10053000E96E010E0320EA6E87C1EFFF86510408C1
:10054000D8A4A5EF02F0010E846F2B6BF19AF09006
:10055000F086BAEF02F00001010E0201226FCD6AAF
:10056000AA6A9D909E9001012B6BF19AF090F08603
:10057000BAEF02F09E90000156EF00F002012B2B23
:10058000D8B42C2B2C510208D8B0E0EF02F0FF0AAF
:10059000D8A4D0EF02F02B51E708D8B0E0EF02F07A
:1005A0002C6B2B6B2D2B35511A08D8A4DBEF02F0E6
:1005B000362BD8B4372B00019B2BD8B49C2B0201CF
:1005C0000101282DF3EF02F08C88959802013E512D
:1005D0003E2B0008D8B0F4EF02F03E6B3D6B010EED
:1005E00001012A6F286B020101012A510208D8A4D7
:1005F00007EF03F002013F513F2B0108D8B008EF8D
:1006000003F08C9895983F6B030E01012A6F02014D
:1006100026512808D8A40EEF03F0272B27510908EC
:10062000D8A418EF03F0150E286F290E266F276B3C
:100630002253D8A423EF03F0FD0ED76E8F0ED66E93
:10064000F29483EF03F02D513B08D8B03EEF03F056
:100650002D6B2E2B3A515008D8A432EF03F0382BD3
:1006600038EF03F03A515108D8A438EF03F0386B53
:100670003B512108D8B03EEF03F03C2B2E513C08F3
:10068000D8A446EF03F02E6B0F0E2A6F3153D8B467
:1006900061EF03F0322BD8B4332B3051335DD8A047
:1006A00061EF03F0D8A45AEF03F02F51325DD8A0C8
:1006B00061EF03F0010E346F316B336B326B306BD3
:1006C0002F6B38510F08D8A469EF03F0370E396F3C
:1006D000386B36511E08D8A476EF03F03753D8A4F0
:1006E00076EF03F0190E356F376B366B3C510E0801
:1006F000D8B07EEF03F0210E3B6F3C6BFD0ED76E42
:100700008F0ED66EF294F294000156EF00F00201C3
:1007100026512908D8A48FEF03F0280E266F040075
:10072000A4AA8FEF03F07ACF82F28051FF08D8A4F9
:10073000ADEF03F08151FF08D8A4ADEF03F0816B5A
:1007400081C280F2036A81514E0FE96E020E0320CE
:10075000EA6E82C2EFFFDDEF03F081513108D8A4C9
:10076000C2EF03F08053D8B4C2EF03F0816B036A89
:1007700081514E0FE96E020E0320EA6E82C2EFFF36
:10078000DDEF03F081513108D8A4CBEF03F08053A3
:10079000D8B4D1EF03F0010E805D815DD8A4D3EF12
:1007A00003F0DDEF03F0812B036A81514E0FE96EF8
:1007B000020E0320EA6E82C2EFFFA49A000156EFF8
:1007C00000F041542B434744434F4E543D312C22BB
:1007D0004950222C22777777220D000041542B4379
:1007E000474143543D312C310D0041542B43475078
:1007F000414444523D310D0041542B434741435441
:100800003F0D000041542B514854545055524C3D1B
:1008100025752C25750D0000687474703A2F2F6DA6
:10082000776D2E697473696E696E6469612E636F8A
:100830006D2F6170692F546573742F4765745374FD
:1008400072696E674765744D6574686F643F613D9A
:100850003226623D3126633D35266D3D31303030E4
:1008600024254C7524254C7524317C3135303024B9
:10087000254C7524254C7524310041542B51485486
:10088000545055524C3D25752C25750D000068744B
:1008900074703A2F2F747261636B7765696768654E
:1008A000722E636F6D2F6170692F546573742F47BB
:1008B0006574537472696E674765744D6574686FCB
:1008C000643F613D257526623D254C7526633D25B7
:1008D00075266D3D254C7524254C7524254C7524B5
:1008E00025757C254C7524254C7524254C752425AF
:1008F000757C254C7524254C7524254C752425754F
:100900007C254C7524254C7524254C752425757C37
:10091000254C7524254C7524254C7524257500001F
:10092000687474703A2F2F747261636B77656967AE
:100930006865722E636F6D2F6170692F54657374D3
:100940002F476574537472696E674765744D65749B
:10095000686F643F613D257526623D254C752663B1
:100960003D2575266D3D254C7524254C7524254C5B
:1009700075242575000041542B5148545450474567
:10098000543D3132300D0000940E06018825E96E89
:10099000040E8921EA6E04009EAACBEF04F0AECFCC
:1009A000EFFF882BD8B4892B8851F408D8A4DEEF48
:1009B00004F0892DDEEF04F0896B886B9E9A0001AC
:1009C00056EF00F0415445300D0041542B43534342
:1009D000533D2247534D220D000041542B43504DAF
:1009E000533D22534D220D0041542B434E4D493D62
:1009F000322C322C302C302C300D000041542B4343
:100A00004D47463D310D000041540D0041542B43EC
:100A10004D47463D310D000041542B434D47533D5A
:100A200022256325632563256325632563256325C7
:100A30006325632563256325632563220D004154E7
:100A40002B434D47533D22256325632563256325AD
:100A50006325632563256325632563256325632556
:100A600063220D0041542B434D47533D22256325FE
:100A70006325632563256325632563256325632536
:100A800063256325632563220D005448495320499B
:100A90005320412054455354204D4553534147451D
:100AA0002046524F4D205155454354454C00820E2F
:100AB000D56EFD0ED76E8F0ED66EF294F28A19EFB8
:100AC00032F0016669EF05F002666AEF05F072EF39
:100AD00005F0022A00C0EEFF012E6AEF05F0022E9B
:100AE0006AEF05F012000201816981C280F2020EF4
:100AF000EA6E4E0EE96E006A026A320E016E000165
:100B000061EC05F0A38A1BEF32F09D8A1DEF32F0F5
:100B10009450BF0B0B01946E94508009946E9350C7
:100B2000EF0B936E00011FEF32F00B014E5150039B
:100B3000F3CF01F0F4CF00F05103F35000264F51F2
:100B40005003F3500020026E000112000A011969DF
:100B50001A690B01136B13516308D8A01BEF06F041
:100B60004F6B13CB4EFB516B090E506F000195EC90
:100B700005F001C014FB060E0B010124016E000EEE
:100B80000220036E0150950FE96E060E0320EA6EF7
:100B9000EC6AED52EF6A4F6B13CB4EFB516B090EB3
:100BA000506F000195EC05F001C014FB040E0B0121
:100BB0000124016E000E0220036E0150950FE96EB4
:100BC000060E0320EA6EEC6AED52EF6A4F6B13CB10
:100BD0004EFB516B090E506F000195EC05F0950E20
:100BE0000B010124E96E060E0220EA6EEE52EE526F
:100BF000EC6AED52EF6AED52EF6AED52EF6A4F6B1D
:100C000013CB4EFB516B090E506F000195EC05F0B4
:100C100001C014FB080E0B010124016E000E02201E
:100C2000036E0150950FE96E060E0320EA6EEF6A1F
:100C3000132BABEF05F0000112000201946B020EC2
:100C4000936F040E956F0001A6EF06F02B0E0B01BB
:100C5000146F670E136F156B156B15516308D8A0D1
:100C600050EF06F04F6B15CB4EFB516B090E506FDA
:100C7000000195EC05F0950E0B010124E96E060EBE
:100C80000220EA6E14CB03F01351132BD8B4142BAB
:100C9000EF6E03C0ECFFEC6AEC6A152B2DEF06F04B
:100CA000000112000B01146B156B4B0E1225016E27
:100CB000000E1321036E4C0E1225E96E000E132157
:100CC000EA6EEF68FF0E03C0EAFF01C0E9FFEF6EB6
:100CD000146B14510E08D8A093EF06F0156B155144
:100CE0000408D8A090EF06F04F6B14CB4EFB516B6D
:100CF000050E506F000195EC05F001C016FB0B01CD
:100D000015510124016E000E0220036E01501225C0
:100D1000E96E13510320EA6EEF6A152B6FEF06F0B0
:100D2000142B69EF06F0000112008C989598F19A47
:100D3000F090F086F294F28A9E909D80A192A0821B
:100D4000C00EF212A6EC05F01DEF06F026EC06F040
:100D5000010E0B01136FD50E126F000152EC06F05D
:100D6000010E0B01136F880E126F000152EC06F09A
:100D7000806B7F6B826B816B846B836B866B856B07
:100D8000886B876B8A6B896B8C6B8B6BA66BA56B87
:100D9000766B756BA76BA96B0A0EA86F0101866B4A
:100DA000876B2F6B306B316B326B336B000121EF34
:100DB00032F00B0EEA6E340EE96EEF50D8B4F2EF5B
:100DC00006F0060E016EBF0E006E0400002EFDD769
:100DD000012EF9D77A0E006E002EFED700D0040047
:100DE000EF2EEFD712000B015251016A515DD8B0BE
:100DF000FEEF06F051CB00F00BEF07F0006A080E93
:100E0000536F513700365251005CD8B0006E013636
:100E1000532F01EF07F0000112000B01526B526BD0
:100E200052510408D8A02CEF07F052515025016E02
:100E3000000E5121036E52514E25E96E000E4F21D6
:100E4000EA6EEFCF55FB03C0EAFF01C0E9FF55CBC7
:100E5000EFFF522B10EF07F0000112000B014A5177
:100E60004B11D8A436EF07F026EF08F04B0E4825BB
:100E7000E96E000E4921EA6EEF52D8A44BEF07F05D
:100E80004C0E4825E96E000E4921EA6EEF500E081F
:100E9000D8B468EF07F04C0E4825E96E000E4921E2
:100EA000EA6EEFCF4CFB4B0E4825E96E000E492150
:100EB000EA6E010EEF5C4E6F516F0E0E526F000125
:100EC000F3EC06F000500B014C5DD8A46CEF07F07A
:100ED00026EF08F026EF08F04B0E4825E96E000ECD
:100EE0004921EA6EEF50FF08D8A4B3EF07F04B0E8C
:100EF0004825016E000E4921036E4C0E4825E96E0F
:100F0000000E4921EA6EEF6A000E03C0EAFF01C03D
:100F1000E9FFEF6E4C0E4825E96E000E4921EA6E9E
:100F20004F6BEFCF4EFB516B050E506F000195ECF0
:100F300005F002C003F001500B014825016E495134
:100F4000032201C04CFB03C04DFB4BCB4FFB4ACBF4
:100F50004EFB03C051FB01C050FB00010DEC07F03C
:100F600025EF08F00B014C0E4825E96E000E4921D3
:100F7000EA6EEF500E08D8A4F8EF07F04B0E4825A4
:100F8000E96E000E4921EA6EEF52D8B4F8EF07F08F
:100F90004C0E4825E96E000E4921EA6EEF6A4C0EB0
:100FA0004825E96E000E4921EA6E4F6BEFCF4EFBEC
:100FB000516B050E506F000195EC05F002C003F077
:100FC00001500B014825016E4951032201C04CFB21
:100FD00003C04DFB4BCB4FFB4ACB4EFB03C051FB39
:100FE00001C050FB00010DEC07F025EF08F00B01EC
:100FF0004C0E4825E96E000E4921EA6EEF2A4C0E90
:101000004825E96E000E4921EA6E4F6BEFCF4EFB8B
:10101000516B050E506F000195EC05F002C003F016
:1010200001500B014825016E4951032201C04CFBC0
:1010300003C04DFB4BCB4FFB4ACB4EFB03C051FBD8
:1010400001C050FB00010DEC07F00B010001120084
:101050000400A4A828EF08F0796E12004B0E0B01D3
:101060001225E96E000E1321EA6EEF50FF08D8A496
:101070003EEF08F0000E016E40EF08F0010E016E29
:10108000000112004B0E0B011D25E96E000E1E2102
:10109000EA6EEF50FF08D8A450EF08F0B5EF08F063
:1010A0004B0E1D25E96E000E1E21EA6E4F6BEFCF31
:1010B0004EFB516B050E506F000195EC05F002C020
:1010C00003F001500B011D25016E1E51032201C0CA
:1010D00021FB03C022FB03C04FFB01C04EFB20CB12
:1010E00051FB1FCB50FB00010DEC07F04B0E0B0129
:1010F0001D25E96E000E1E21EA6EEFCF21FB4C0E7E
:101100001D25E96E000E1E21EA6EEF50215DD8A468
:101110009AEF08F04B0E1D25E96E000E1E21EA6EB7
:10112000EF684C0E1D25E96E000E1E21EA6EEF6879
:10113000B5EF08F04B0E1D25E96E000E1E21EA6E7C
:10114000EF500E08D8A4AEEF08F04B0E1D25E96E47
:10115000000E1E21EA6EEF6AB5EF08F04B0E1D255A
:10116000E96E000E1E21EA6EEF2A000112000B014B
:10117000126B136B146B126B12510408D8A0CCEFD6
:1011800008F0036A1251340FE96E010E0320EA6E73
:10119000EF6A122BBCEF08F0010E1E6F880E1D6F58
:1011A000010E206F340E1F6F000142EC08F00B019E
:1011B000126B12510408D8A035EF0AF012510F0D2E
:1011C000F350036A390FE96E010E0320EA6EEF6AED
:1011D00012CB13FB1331136BD8B0138F1335136B72
:1011E000D8B0138112510F0DF350010F036A390F5C
:1011F000E96E010E0320EA6E13CBEFFF12CB13FB57
:10120000133B13371337C00E13171335136BD8B0B6
:10121000138112510F0DF350020F036A390FE96E5B
:10122000010E0320EA6E13CBEFFF12CB13FB133B2F
:101230001337E00E13171335136BD8B01381125107
:101240000F0DF350030F036A390FE96E010E0320EF
:10125000EA6E13CBEFFF036A1251340FE96E010EF1
:101260000320EA6EEFCF14FB1431146BD8B0148F47
:101270001435146BD8B0148112510F0DF350040FB4
:10128000036A390FE96E010E0320EA6E14CBEFFFFB
:10129000036A1251340FE96E010E0320EA6EEFCF9C
:1012A00014FB143B14371437C00E14171435146B89
:1012B000D8B0148112510F0DF350050F036A390F86
:1012C000E96E010E0320EA6E14CBEFFF036A1251A0
:1012D000340FE96E010E0320EA6EEFCF14FB143BCE
:1012E0001437E00E14171435146BD8B01481125152
:1012F0000F0DF350060F036A390FE96E010E03203C
:10130000EA6E14CBEFFF036A1251340FE96E010E3F
:101310000320EA6EEFCF14FB143BF00E14171435C4
:10132000146BD8B0148112510F0DF350070F036ADC
:10133000390FE96E010E0320EA6E14CBEFFF036A4A
:101340001251340FE96E010E0320EA6EEFCF14FB49
:10135000143714371437F80E14171435146BD8B02B
:10136000148112510F0DF350080F036A390FE96E03
:10137000010E0320EA6E14CBEFFF036A1251340F03
:10138000E96E010E0320EA6EEFCF14FB1437143719
:10139000FC0E14171435146BD8B0148112510F0DB4
:1013A000F350090F036A390FE96E010E0320EA6E4C
:1013B00014CBEFFF036A1251340FE96E010E0320C4
:1013C000EA6EEFCF14FBD89014371435146BD8B0F5
:1013D000148112510F0DF3500A0F036A390FE96E91
:1013E000010E0320EA6E14CBEFFF036A1251340F93
:1013F000E96E010E0320EA6EEFCF14FB1435146B77
:10140000D8B0148112510F0DF3500B0F036A390F2E
:10141000E96E010E0320EA6E14CBEFFF12510F0D9F
:10142000F3500C0F036A390FE96E010E0320EA6EC8
:10143000010EEF6E12510F0DF3500D0F036A390FAD
:10144000E96E010E0320EA6E010EEF6E12510F0DD0
:10145000F3500E0F036A390FE96E010E0320EA6E96
:10146000010EEF6E122BD9EF08F001012C6B010E6B
:101470000001B66FB06A370EB16EB368BF0EB26EC0
:101480000201226BA192A082000177EF32F00A01E3
:101490001953D8A451EF0AF01A516308D8B457EF82
:1014A0000AF0010E1A25195DD8A45BEF0AF073EF5C
:1014B0000BF073EF0BF01A51FF08D8A4BAEF0AF043
:1014C0001A6B196B0B014F6B1ACA4EFB516B090E4D
:1014D000506F000195EC05F001C01DFB040E0B01DF
:1014E0000124016E000E0220036E0150950FE96E7B
:1014F000060E0320EA6E1ECAECFFED521DCAEFFF76
:101500004F6B1ACA4EFB516B090E506F000195ECE0
:1015100005F001C01DFB060E0B010124016E000E3B
:101520000220036E0150950FE96E060E0320EA6E4D
:101530001CCAECFFED521BCAEFFF4F6B1ACA4EFBE1
:10154000516B090E506F000195EC05F001C01DFBB9
:10155000080E0B010124016E000E0220036E0150E3
:10156000950FE96E060E0320EA6E1FCAEFFF72EFB9
:101570000BF00A011A516308D8A41CEF0BF01953A1
:10158000D8B41CEF0BF01A6B0B014F6B1ACA4EFB51
:10159000516B090E506F000195EC05F001C01DFB69
:1015A000040E0B010124016E000E0220036E015097
:1015B000950FE96E060E0320EA6E1ECAECFFED528F
:1015C0001DCAEFFF4F6B1ACA4EFB516B090E506FCD
:1015D000000195EC05F001C01DFB060E0B01012476
:1015E000016E000E0220036E0150950FE96E060E8B
:1015F0000320EA6E1CCAECFFED521BCAEFFF4F6BD3
:101600001ACA4EFB516B090E506F000195EC05F0A4
:1016100001C01DFB080E0B010124016E000E02200B
:10162000036E0150950FE96E060E0320EA6E1FCA85
:10163000EFFF72EF0BF00A011A2B0B014F6B1ACA66
:101640004EFB516B090E506F000195EC05F001C087
:101650001DFB040E0B010124016E000E0220036E1F
:101660000150950FE96E060E0320EA6E1ECAECFFCC
:10167000ED521DCAEFFF4F6B1ACA4EFB516B090E9C
:10168000506F000195EC05F001C01DFB060E0B012B
:101690000124016E000E0220036E0150950FE96EC9
:1016A000060E0320EA6E1CCAECFFED521BCAEFFFC8
:1016B0004F6B1ACA4EFB516B090E506F000195EC2F
:1016C00005F001C01DFB080E0B010124016E000E88
:1016D0000220036E0150950FE96E060E0320EA6E9C
:1016E0001FCAEFFF0A010001B3EF0CF00B01176BEB
:1016F000196B186B1B6B320E1A6F010E1E6FD50E15
:101700001D6F0B0E206F120E1F6F000142EC08F0D0
:101710000B011251670A0001D8B4B9EF0BF0010AAE
:10172000D8B4E6EF0BF00E0AD8B4E9EF0BF01E0ABE
:10173000D8B4ECEF0BF01A0AD8B415EF0CF0010A8C
:10174000D8B418EF0CF01C0AD8B41BEF0CF0060A42
:10175000D8B41EEF0CF0050AD8B447EF0CF0080A15
:10176000D8B4CCEF0CF0130AD8B4F9EF0CF027EF93
:101770000DF0010E0B01176F17510408D8A0DCEF14
:101780000BF0010E175D036AD70F016E000E0322E6
:1017900003C01EFB036A1751120FE96E0B0E0320E4
:1017A000EA6EEFCF1FFB1ECBEAFF01C0E9FF1FCBA4
:1017B000EFFF172BBCEF0BF0DAC070F0D9C06FF061
:1017C000D8C06EF0D7C06DF02AEF0DF00B012AEFF4
:1017D0000DF00B012AEF0DF0010E0B01176F1751E1
:1017E0000408D8A00FEF0CF0010E175D036ABB0FC1
:1017F000016E000E032203C01EFB036A1751120F75
:10180000E96E0B0E0320EA6EEFCF1FFB1ECBEAFF43
:1018100001C0E9FF1FCBEFFF172BEFEF0BF0BEC0AE
:101820008AF0BDC089F02AEF0DF00B012AEF0DF010
:101830000B012AEF0DF00B012AEF0DF0010E0B0149
:10184000176F17510408D8A041EF0CF0010E175D77
:10185000036ACF0F016E000E032203C01EFB036A52
:101860001751120FE96E0B0E0320EA6EEFCF1FFB2C
:101870001ECBEAFF01C0E9FF1FCBEFFF172B21EFC3
:101880000CF0D0C088F0CFC087F02AEF0DF0010E29
:101890000B01176F17510408D8A06AEF0CF0010E66
:1018A000175D036AB70F016E000E032203C01EFB13
:1018B000036A1751120FE96E0B0E0320EA6EEFCF89
:1018C0001FFB1ECBEAFF01C0E9FF1FCBEFFF172B69
:1018D0004AEF0CF0D8900001B831806FB7317F6FBC
:1018E00080C019FB7FC018FBBAC01CFAB9C01BFA34
:1018F0001CCA84F01BCA83F0856B866BB7B1868FD8
:101900008635856B866BD8B085817F3780377F378A
:101910008037FC0E7F1780337F3380337F333F0E59
:1019200080170B011853D8A49AEF0CF01953D8B4B0
:10193000B8EF0CF018510D5DD8A4A4EF0CF01951BC
:101940000E5DD8B4B8EF0CF080C01EFA7FC01DFA4F
:1019500084C01CFA83C01BFA86C020FA85C01FFA17
:10196000000147EF0AF019CB0EFB18CB0DFB0B0162
:1019700000017F53D8A4C1EF0CF08053D8B4C3EF5B
:101980000CF0C9EF0CF00B011C6B1C2B640E1C6FD0
:1019900000010B012AEF0DF0010E0B01176F17511B
:1019A0000408D8A0EFEF0CF0010E175D036AB70F23
:1019B000016E000E032203C01EFB036A1751120FB3
:1019C000E96E0B0E0320EA6EEFCF1FFB1ECBEAFF82
:1019D00001C0E9FF1FCBEFFF172BCFEF0CF0BAC010
:1019E0001CFAB9C01BFA1CCA84F01BCA83F02AEF88
:1019F0000DF0010E0B01176F17510408D8A01CEF52
:101A00000DF0010E175D036ADB0F016E000E03225D
:101A100003C01EFB036A1751120FE96E0B0E032061
:101A2000EA6EEFCF1FFB1ECBEAFF01C0E9FF1FCB21
:101A3000EFFF172BFCEF0CF0DEC074F0DDC073F08D
:101A4000DCC072F0DBC071F02AEF0DF000010B0179
:101A50002AEF0DF0000185EF32F0040EEA6E940ECD
:101A6000E96E006A010E026EF40E016E61EC05F083
:101A70000601896B886B000112000900F552D8B489
:101A800052EF0DF0F6CF1BFBF7CF1CFBF550040017
:101A90009EA847EF0DF0AD6E1BCBF6FF1CCBF7FFFA
:101AA0003DEF0DF012000B014F6B1BCB4EFB030EF5
:101AB000516FE80E506F000195EC05F002C030F256
:101AC00001C02FF2010E0201316F000112000B0163
:101AD000126B136B0201346B0B0113510408D8A075
:101AE00001EF0EF000012DEC0DF0080EF66E0A0E5F
:101AF000F76E3DEC0DF00D0E04009EA87CEF0DF08E
:101B0000AD6E0A0E04009EA882EF0DF0AD6E010EC0
:101B10000B011B6F000153EC0DF002013453D8A4EC
:101B2000FDEF0DF00B011253D8B403D00201FDEF0D
:101B30000DF0156B146B15510601895DD8A0F9EFF6
:101B40000DF0D8A4ADEF0DF088510B01145DD8A0B5
:101B500003D00601F9EF0DF00601940E0B011425D8
:101B6000E96E040E1521EA6EEF500A08D8A4F4EFCE
:101B70000DF0010E145D166F000E1559176F940EBF
:101B80001625E96E040E1721EA6EEF500D08D8A451
:101B9000F4EF0DF0020E145D186F000E1559196F59
:101BA000940E1825E96E040E1921EA6EEF504B08C9
:101BB000D8A4F4EF0DF0030E145D1A6F000E155942
:101BC0001B6F940E1A25E96E040E1B21EA6EEF506E
:101BD0004F08D8A4F4EF0DF0010E126F050E136F2D
:101BE0000601F9EF0DF00B01142BD8B4152B9BEF68
:101BF0000DF000018DEF0DF002010B01132B6DEFC5
:101C00000DF012CB01F0000190EF32F00B012E6BC2
:101C10002CCBE9FF2DCBEAFF010EEF6E02018051C4
:101C2000FF08D8A41FEF0EF00B012CCBE9FF2DCB42
:101C3000EAFFEF6A000E016E46EF0EF00201036A42
:101C400080514E0FE96E020E0320EA6EEFCF2EFB9D
:101C5000036A80514E0FE96E020E0320EA6EEF6AAE
:101C60008151805DD8A43AEF0EF0816981C280F283
:101C700043EF0EF080513108D8A442EF0EF0806B94
:101C800043EF0EF0802B0B012ECB01F0000194EFFF
:101C900019F002018151805DD8B057EF0EF08051EC
:101CA000815D010F016E66EF0EF064EF0EF0805162
:101CB000815DD8B064EF0EF0320ED880805581255A
:101CC000010F016E66EF0EF0000E016E00011200B2
:101CD000020180698169000112000B01406B3F6BBA
:101CE00042694169A00E446F010E436F456B466B1C
:101CF000476B3E51455DD8A480EF0EF0C1EF0EF06A
:101D0000452B466B4653D8A4A2EF0EF0452D97EF16
:101D10000EF0010E455D3C25E96E000E3D21EA6E98
:101D2000EF5041193F6F42CB40FBA0EF0EF0010E88
:101D3000455D3C25E96E000E3D21EA6EEF503F1BEC
:101D4000A6EF0EF043513F1B4451401B462B46511A
:101D50000808D8B0AEEF0EF0BFEF0EF03F51010B08
:101D6000476FD89040333F33472DBBEF0EF082EFE3
:101D70000EF0BDEF0EF0A6EF0EF082EF0EF079EF51
:101D80000EF03FCB01F040CB02F0000112000B013E
:101D90002D6B2C6B010E2E6F2F6B306B316B80C255
:101DA00032FB0201836F0B01316F31510608D8B449
:101DB000F5EF0EF0036A3151830F016E020E03221C
:101DC00003C034FB3251322B036A4E0FE96E020E10
:101DD0000320EA6EEFCF35FB34CBEAFF01C0E9FF09
:101DE00035CBEFFF312BD5EF0EF0020E3D6F830E9A
:101DF0003C6F060E3E6F00016DEC0EF002C02DFB35
:101E000001C02CFB0B013251322B036A4E0FE96EDD
:101E1000020E0320EA6EEFCF2FFB2DCB34FB2CCB31
:101E200033FB2CCB00F0036A2C512F5DD8A42FEF8D
:101E30000FF0036A32514E0FE96E020E0320EA6E74
:101E4000EFCF2FFB2DCB33FB346B2DCB00F0036A90
:101E50002D512F5DD8A42FEF0FF0010E306F30CB36
:101E600001F0000135EF1AF00B01366B356B30CB0A
:101E7000E2F031CBE3F032CBE4F034CBE5F000011B
:101E800033CBE6F00001E76BE86B0B013D6BE20E34
:101E90003C6F050E3E6F00016DEC0EF002C036FB8C
:101EA00001C035FB35CBE7F0000136CBE8F000018F
:101EB000070E0101296F010E286F000112000B01AE
:101EC0002C516008D8A47AEF0FF02D510508D8A442
:101ED0007AEF0FF0010E306F030E316F020E326F8A
:101EE00080C034FB7FC033FB000134EC0FF043EFC4
:101EF00010F00B012C516208D8A494EF0FF02D5173
:101F00000508D8A494EF0FF0010E306F030E316F67
:101F1000020E326F84C034FB83C033FB000134EC0B
:101F20000FF043EF10F00B012C516408D8A4AEEF72
:101F30000FF02D510508D8A4AEEF0FF0010E306F51
:101F4000030E316F020E326F86C034FB85C033FB47
:101F5000000134EC0FF043EF10F00B012C51660838
:101F6000D8A4C8EF0FF02D510508D8A4C8EF0FF082
:101F7000010E306F030E316F020E326F88C034FBDA
:101F800087C033FB000134EC0FF043EF10F00B017E
:101F90002C516808D8A4E2EF0FF02D510508D8A401
:101FA000E2EF0FF0010E306F030E316F020E326F51
:101FB0008AC034FB89C033FB000134EC0FF043EFDF
:101FC00010F00B012C53D8A4FBEF0FF02D51070894
:101FD000D8A4FBEF0FF0010E306F030E316F020E2D
:101FE000326F8CC034FB8BC033FB000134EC0FF03C
:101FF00043EF10F00B012C519608D8A419EF10F004
:102000002D510208D8A419EF10F06EC02FFB6DC03F
:102010002EFB010E306F030E316F020E326F6EC059
:1020200034FB6DC033FB000134EC0FF043EF10F0D4
:102030000B012C519808D8A437EF10F02D5102084D
:10204000D8A437EF10F072C02FFB71C02EFB010E29
:10205000306F030E316F020E326F72C034FB71C0ED
:1020600033FB000134EC0FF043EF10F00B01010ED5
:10207000306F030E316F020E326F346B010E336F0F
:10208000000134EC0FF04EEF1AF00B01366B356B9C
:102090002ECBE2F02FCBE3F030CBE4F032CBE5F007
:1020A000000131CBE6F0000134CBE7F0000133CB87
:1020B000E8F00001E96BEA6B0B013D6BE20E3C6F4F
:1020C000070E3E6F00016DEC0EF002C036FB01C042
:1020D00035FB35CBE9F0000136CBEAF00001090E03
:1020E0000101296F010E286F000112000B012C5114
:1020F0007208D8A49AEF10F02D510208D8A49AEFD4
:1021000010F076C03DF075C03CF0010E2E6F030E4E
:102110002F6F040E306F3DC032FB3CC031FB3FC01F
:1021200034FB3EC033FB000145EC10F06C6BE5EF77
:1021300011F00B012C517408D8A4BDEF10F02D51F3
:102140000208D8A4BDEF10F076C041F075C040F091
:10215000010E2E6F030E2F6F040E306F41C032FB45
:1021600040C031FB43C034FB42C033FB000145ECAF
:1021700010F06C6BE5EF11F00B012C517608D8A430
:10218000E0EF10F02D510208D8A4E0EF10F076C077
:1021900045F075C044F0010E2E6F030E2F6F040E34
:1021A000306F45C032FB44C031FB47C034FB46C0F2
:1021B00033FB000145EC10F06C6BE5EF11F00B0107
:1021C0002C517808D8A403EF11F02D510208D8A49F
:1021D00003EF11F076C049F075C048F0010E2E6F84
:1021E000030E2F6F040E306F49C032FB48C031FB25
:1021F0004BC034FB4AC033FB000145EC10F06C6B64
:10220000E5EF11F00B012C518008D8A426EF11F056
:102210002D510208D8A426EF11F076C04DF075C0FC
:102220004CF0010E2E6F030E2F6F040E306F4DC059
:1022300032FB4CC031FB4FC034FB4EC033FB0001BE
:1022400045EC10F06C6BE5EF11F00B012C5184089C
:10225000D8A449EF11F02D510208D8A449EF11F08C
:1022600076C055F075C054F0010E2E6F030E2F6F1F
:10227000040E306F55C032FB54C031FB57C034FBE5
:1022800056C033FB000145EC10F06C6BE5EF11F02C
:102290000B012C518608D8A46CEF11F02D510208C7
:1022A000D8A46CEF11F076C059F075C058F0010E4B
:1022B0002E6F030E2F6F040E306F59C032FB58C0C3
:1022C00031FB5BC034FB5AC033FB000145EC10F01E
:1022D0006C6BE5EF11F00B012C518808D8A48FEF3F
:1022E00011F02D510208D8A48FEF11F076C05DF0E7
:1022F00075C05CF0010E2E6F030E2F6F040E306F51
:102300005DC032FB5CC031FB5FC034FB5EC033FBA1
:10231000000145EC10F06C6BE5EF11F00B012C5156
:102320009008D8A4B2EF11F02D510208D8A4B2EF52
:1023300011F076C061F075C060F0010E2E6F030ED3
:102340002F6F040E306F61C032FB60C031FB63C081
:1023500034FB62C033FB000145EC10F06C6BE5EF21
:1023600011F00B012C519208D8A4D5EF11F02D518A
:102370000208D8A4D5EF11F076C065F075C064F0FE
:10238000010E2E6F030E2F6F040E306F65C032FBEF
:1023900064C031FB67C034FB66C033FB000145EC11
:1023A00010F06C6BE5EF11F00B01010E2E6F030EB8
:1023B0002F6F040E306F110E326F700E316F346B51
:1023C000010E336F000145EC10F061EF1AF00B01C4
:1023D000366B356B2CCBE2F02DCBE3F02ECBE4F05B
:1023E00030CBE5F000012FCBE6F0000132CBE7F077
:1023F000000131CBE8F0000134CBE9F0000133CB30
:10240000EAF000010B013D6BE20E3C6F090E3E6FDE
:1024100000016DEC0EF002C036FB01C035FB35CB80
:10242000EBF0000136CBECF000010B0E0101296F3F
:10243000010E286F000179EF1AF00B012C6B2D6B48
:102440002E6B2F6B306B80C22CFB036A2C514E0F0E
:10245000E96E020E0320EA6EEFCF2DFB000149EC7E
:102460000EF0010E01240B012E6F036A2F51E20FB3
:10247000E96E000E0320EA6E010EEF6E2F2B2CCBBF
:1024800030FB2E51305DD8B061EF12F0036A2F514E
:10249000E20F016E000E032203C032FB036A3051CB
:1024A0004E0FE96E020E0320EA6EEFCF33FB32CB04
:1024B000EAFF01C0E9FF33CBEFFF2F2B302B41EFB9
:1024C00012F02ECB29F1010E0101286F000112003C
:1024D000ACC0ADF0AC6B5AEF14F0ACC0ADF0010E77
:1024E000AC6F5FEF14F0ACC0ADF0020EAC6F85EFD7
:1024F00014F0ACC0ADF0030EAC6FABEF14F0ACC099
:10250000ADF0040EAC6FD1EF14F0ACC0ADF0050E21
:10251000AC6FD6EF14F00B012C6B2D6B2E6B306B68
:102520002F6B326B316B366B356B346B336B80C218
:102530002CFB036A2C514E0FE96E020E0320EA6E4B
:10254000EFCF2DFB000149EC0EF001C02EFB020E77
:102550000B012C25FF0F036A4E0FE96E020E0320BC
:10256000EA6EEFCF37FB030E2C25FF0F036A4E0FE9
:10257000E96E020E0320EA6EEFCF38FB306B37CBEB
:102580002FFB2FCB30FB2F6B38512F27000E302322
:10259000040E2C25FF0F036A4E0FE96E020E032076
:1025A000EA6EEFCF39FB050E2C25FF0F036A4E0FA5
:1025B000E96E020E0320EA6EEFCF3AFB010E2F25E3
:1025C0003B6F000E30213C6F326B39CB31FB31CB8E
:1025D00032FB316B3A513127000E32232F51006EFE
:1025E0003051036E0350D8A4FDEF12F0050E005CCD
:1025F0000001D8B40CEF14F00B01020E035CD8A458
:1026000009EF13F0500E005C0001D8B4FCEF14F099
:102610000B01020E035CD8A415EF13F0520E005C00
:102620000001D8B403EF15F00B01020E035CD8A42F
:1026300021EF13F0540E005C0001D8B40AEF15F03E
:102640000B01020E035CD8A42DEF13F0560E005CB4
:102650000001D8B411EF15F00B01050E035CD8A4EE
:1026600039EF13F0920E005C0001D8B418EF15F0AA
:102670000B01020E035CD8A445EF13F0820E005C40
:102680000001D8B439EF15F00B01070E035CD8A494
:1026900051EF13F0200E005C0001D8B473EF15F079
:1026A0000B01050E035CD8A45DEF13F0700E005C07
:1026B0000001D8B47AEF15F00B01050E035CD8A425
:1026C00068EF13F000520001D8B4A2EF15F00B012F
:1026D000050E035CD8A474EF13F0500E005C0001EB
:1026E000D8B4ABEF15F00B01050E035CD8A480EF56
:1026F00013F0520E005C0001D8B4E9EF15F00B01A5
:10270000050E035CD8A48CEF13F0540E005C00019E
:10271000D8B4F4EF15F00B010350D8A497EF13F0E1
:10272000100E005C0001D8B430EF16F00B0103501E
:10273000D8A4A2EF13F0110E005C0001D8B437EF5B
:1027400016F00B010350D8A4ADEF13F0120E005C8D
:102750000001D8B43EEF16F00B010350D8A4B8EF37
:1027600013F0140E005C0001D8B445EF16F00B0115
:102770000350D8A4C3EF13F0150E005C0001D8B4C9
:102780004CEF16F00B010350D8A4CEEF13F0160E49
:10279000005C0001D8B453EF16F00B01030E035C8C
:1027A000D8A4DAEF13F0150E005C0001D8B45CEF8A
:1027B00016F00B01030E035CD8A4E6EF13F0100E25
:1027C000005C0001D8B463EF16F00B01020E035C4D
:1027D000D8A4F2EF13F0990E005C0001D8B472EFA8
:1027E00016F00B01070E035CD8A4FEEF13F0100ED9
:1027F000005C0001D8B4B4EF16F00B01070E035CC7
:10280000D8A40AEF14F0110E005C0001D8B4C5EF93
:1028100016F00B01FDEF16F032CBA6F031CBA5F090
:102820000B013151006E3251036E0350D8A41FEFDB
:1028300014F000520001D8B458EF14F00B0103500B
:10284000D8A42AEF14F0010E005C0001D8B45DEFAB
:1028500014F00B010350D8A435EF14F0020E005C05
:102860000001D8B483EF14F00B010350D8A440EF5B
:1028700014F0030E005C0001D8B4A9EF14F00B01B2
:102880000350D8A44BEF14F0040E005C0001D8B440
:10289000CFEF14F00B010350D8A456EF14F0050E3F
:1028A000005C0001D8B4D4EF14F00B01FAEF14F07F
:1028B00068EF12F00B01FAEF14F06DEF12F0640EF6
:1028C0000101346F010E0B013D6F3D510408D8A08A
:1028D00075EF14F0036A3D51340FE96E010E0320C9
:1028E000EA6EEF6A3D2B65EF14F0010E496F880E1A
:1028F000486F010E4B6F340E4A6F00012EEC07F04B
:102900000B01FAEF14F073EF12F06B0E0101346F4C
:10291000010E0B013E6F3E510408D8A09BEF14F04E
:10292000036A3E51340FE96E010E0320EA6EEF6A2E
:102930003E2B8BEF14F0010E496F880E486F010E8D
:102940004B6F340E4A6F00012EEC07F00B01FAEFCB
:1029500014F079EF12F0700E0101346F010E0B01CB
:102960003F6F3F510408D8A0C1EF14F0036A3F51F4
:10297000340FE96E010E0320EA6EEF6A3F2BB1EFD0
:1029800014F0010E496F880E486F010E4B6F340E24
:102990004A6F00012EEC07F00B01FAEF14F07FEF05
:1029A00012F00B01FAEF14F085EF12F0650E010141
:1029B000346F010E0B01406F40510408D8A0ECEFBA
:1029C00014F0036A4051340FE96E010E0320EA6EE1
:1029D000EF6A402BDCEF14F0010E496F880E486F50
:1029E000010E4B6F340E4A6F00012EEC07F00B0105
:1029F000FAEF14F0FDEF16F032CB78F031CB77F030
:102A00000B01FDEF16F032CB7AF031CB79F00B01F0
:102A1000FDEF16F032CB7CF031CB7BF00B01FDEFFC
:102A200016F032CB7EF031CB7DF00B01FDEF16F0CE
:102A3000010E0B01416F41510408D8A02BEF15F096
:102A4000036A4151340FE96E010E0320EA6EEF6A0A
:102A5000412B1BEF15F0010E496F880E486F010ED8
:102A60004B6F340E4A6F00012EEC07F00B01FDEFA7
:102A700016F032CBD4F031CBD3F0D66BD56B730ECE
:102A80000101346F010E0B01426F42510408D8A0BE
:102A900065EF15F0036A4251340F016E010E0322F7
:102AA00003C049FB010E425D036AD30FE96E000EBD
:102AB0000320EA6EEFCF4AFB49CBEAFF01C0E9FFF2
:102AC0004ACBEFFF422B45EF15F0010E496F880E00
:102AD000486F010E4B6F340E4A6F00012EEC07F069
:102AE0000B01FDEF16F032CB82F031CB81F00B0100
:102AF000FDEF16F032CB8EF031CB8DF06A0E010176
:102B0000346F010E0B01436F43510408D8A094EFBA
:102B100015F0036A4351340FE96E010E0320EA6E8B
:102B2000EF6A432B84EF15F0010E496F880E486F52
:102B3000010E4B6F340E4A6F00012EEC07F00B01B3
:102B4000FDEF16F032CB9EF031CB9DF09DC095F29B
:102B50000B01FDEF16F032CBA0F031CB9FF0A0C0FF
:102B6000C0F09FC0BFF0C26BC16B6C0E0101346F2F
:102B7000010E0B01446F44510408D8A0DBEF15F09F
:102B8000036A4451340F016E010E032203C049FB56
:102B9000010E445D036ABF0FE96E000E0320EA6E6A
:102BA000EFCF4AFB49CBEAFF01C0E9FF4ACBEFFF79
:102BB000442BBBEF15F0010E496F880E486F010ED4
:102BC0004B6F340E4A6F00012EEC07F00B01FDEF46
:102BD00016F032CBA2F031CBA1F0A2C0C4F0A1C05C
:102BE000C3F00B01FDEF16F032CBA4F031CBA3F014
:102BF000A4C0C6F0A3C0C5F06D0E0101346F010E74
:102C00000B01456F45510408D8A022EF16F0036A66
:102C10004551340F016E010E032203C049FB010E22
:102C2000455D036AC30FE96E000E0320EA6EEFCF25
:102C30004AFB49CBEAFF01C0E9FF4ACBEFFF452B36
:102C400002EF16F0010E496F880E486F010E4B6FB0
:102C5000340E4A6F00012EEC07F00B01FDEF16F069
:102C600032CB90F031CB8FF00B01FDEF16F032CB71
:102C700092F031CB91F00B01FDEF16F032CB94F0D6
:102C800031CB93F00B01FDEF16F032CB96F031CB48
:102C900095F00B01FDEF16F032CB98F031CB97F0A9
:102CA0000B01FDEF16F032CB9AF031CB99F09C6B13
:102CB0009B6B0B01FDEF16F032CB6BF031CB6AF062
:102CC0000B01FDEF16F032CB69F031CB68F069C033
:102CD000C8F068C0C7F06BC0CAF06AC0C9F00B0189
:102CE000FDEF16F0010E6C6F706B6F6B6E6B6D6BA2
:102CF000746B736B726B716BC86BC76BCA6BC96B90
:102D0000680E0101346F010E0B01466F4651040835
:102D1000D8A0A6EF16F0036A4651340F016E010EDB
:102D2000032203C049FB010E465D036AC70FE96E2B
:102D3000000E0320EA6EEFCF4AFB49CBEAFF01C049
:102D4000E9FF4ACBEFFF462B86EF16F0010E496FE5
:102D5000880E486F010E4B6F340E4A6F00012EEC47
:102D600007F00B01FDEF16F00B01312DBFEF16F050
:102D70003253D8A4BFEF16F0010EC0EF16F0000ECC
:102D80000001A76F0B01FDEF16F032CBA9F031CB9C
:102D9000A8F0A72DCFEF16F06E0ED0EF16F06F0E45
:102DA0000101346F0001A72DD9EF16F0A851DAEF19
:102DB00016F0000E0101356F020E0B01476F4751EF
:102DC0000408D8A0EFEF16F0036A4751340FE96EFC
:102DD000010E0320EA6EEF6A472BDFEF16F0010EBB
:102DE000496F880E486F010E4B6F340E4A6F000119
:102DF0002EEC07F00B01FDEF16F0000187EF1AF043
:102E00000B013B6B3A6B31CBE2F032CBE3F035CBCD
:102E1000E4F0000134CBE5F00001000EE66F33CBA7
:102E2000E7F00001D8900B0133350001E86F37CB94
:102E3000E9F0000136CBEAF0000139CBEBF00001FC
:102E400038CBECF00001ED6BEE6B0B013D6BE20E4D
:102E50003C6F0B0E3E6F00016DEC0EF002C03BFBB1
:102E600001C03AFB3ACBEDF000013BCBEEF00001A4
:102E70000D0E0101296F010E286F000112000B01D8
:102E80002F517208D8A462EF17F030510208D8A46D
:102E900062EF17F0010E316F2CCB32FB2DCB33FBE1
:102EA00030CB35FB2FCB34FB3DC037FB3CC036FB72
:102EB0003FC039FB3EC038FB000100EC17F0CBEF00
:102EC00018F00B012F517408D8A484EF17F030517B
:102ED0000208D8A484EF17F0010E316F2CCB32FB1F
:102EE0002DCB33FB30CB35FB2FCB34FB41C037FB35
:102EF00040C036FB43C039FB42C038FB000100EC48
:102F000017F0CBEF18F00B012F517608D8A4A6EFDD
:102F100017F030510208D8A4A6EF17F0010E316F58
:102F20002CCB32FB2DCB33FB30CB35FB2FCB34FB03
:102F300045C037FB44C036FB47C039FB46C038FBB1
:102F4000000100EC17F0CBEF18F00B012F517808BF
:102F5000D8A4C8EF17F030510208D8A4C8EF17F072
:102F6000010E316F2CCB32FB2DCB33FB30CB35FB3D
:102F70002FCB34FB49C037FB48C036FB4BC039FB75
:102F80004AC038FB000100EC17F0CBEF18F00B0142
:102F90002F518008D8A4EAEF17F030510208D8A4C6
:102FA000EAEF17F0010E316F2CCB32FB2DCB33FB48
:102FB00030CB35FB2FCB34FB4DC037FB4CC036FB41
:102FC0004FC039FB4EC038FB000100EC17F0CBEFCF
:102FD00018F00B012F510208D8A40CEF18F0305153
:102FE0000208D8A40CEF18F0010E316F2CCB32FB85
:102FF0002DCB33FB30CB35FB2FCB34FB51C037FB14
:1030000050C036FB53C039FB52C038FB000100EC06
:1030100017F0CBEF18F00B012F518408D8A42EEF36
:1030200018F030510208D8A42EEF18F0010E316FBD
:103030002CCB32FB2DCB33FB30CB35FB2FCB34FBF2
:1030400055C037FB54C036FB57C039FB56C038FB60
:10305000000100EC17F0CBEF18F00B012F518608A0
:10306000D8A450EF18F030510208D8A450EF18F04F
:10307000010E316F2CCB32FB2DCB33FB30CB35FB2C
:103080002FCB34FB59C037FB58C036FB5BC039FB34
:103090005AC038FB000100EC17F0CBEF18F00B0121
:1030A0002F518808D8A472EF18F030510208D8A424
:1030B00072EF18F0010E316F2CCB32FB2DCB33FBAE
:1030C00030CB35FB2FCB34FB5DC037FB5CC036FB10
:1030D0005FC039FB5EC038FB000100EC17F0CBEF9E
:1030E00018F00B012F519008D8A494EF18F030512C
:1030F0000208D8A494EF18F0010E316F2CCB32FBEC
:103100002DCB33FB30CB35FB2FCB34FB61C037FBF2
:1031100060C036FB63C039FB62C038FB000100ECC5
:1031200017F0CBEF18F00B012F519208D8A4B6EF8F
:1031300018F030510208D8A4B6EF18F0010E316F24
:103140002CCB32FB2DCB33FB30CB35FB2FCB34FBE1
:1031500065C037FB64C036FB67C039FB66C038FB0F
:10316000000100EC17F0CBEF18F00B01010E316FEE
:103170002CCB32FB2DCB33FB30CB35FB2FCB34FBB1
:103180003DC037FB3CC036FB3FC039FB3EC038FB7F
:10319000000100EC17F0A1EF1AF00B013769386954
:1031A00036513607000AD8B4F7EF18F035CB03F0E4
:1031B0003451342BD8B4352BE96E03C0EAFFEF50FD
:1031C0003819396F036A395100017DEC00F0016E46
:1031D0000B0137510118386F036A3951000105ECB2
:1031E00001F0016EE8CF37FB0B01D0EF18F037CBC1
:1031F0003AFB3A6B3A51381137CB03F0016E37CBBB
:1032000002F000014CEF19F00B012C6B2D6B2E6BB3
:103210002F6B316B306B80C22CFB036A2C514E0F2D
:10322000E96E020E0320EA6EEFCF2DFB060E2E6F25
:10323000036A2F51E20FE96E000E0320EA6E010EC1
:10324000EF6E2F2B2CCB32FB2E512F5DD8B044EFDD
:1032500019F0036A2F51E20F016E000E032203C022
:1032600035FB036A32514E0FE96E020E0320EA6EFF
:10327000EFCF36FB35CBEAFF01C0E9FF36CBEFFFDE
:103280002F2B322B24EF19F0356BE20E346F060E24
:10329000366F0001CDEF18F002C031FB01C030FBEA
:1032A00030CBE8F0000131CBE9F00001010E0B0159
:1032B000346F0001D9EC06F08C889598020E0B0152
:1032C000346F0001D9EC06F00B01336B3351070862
:1032D000D8A07CEF19F0036A3351E20FE96E000EBB
:1032E0000320EA6EEFCF34FB3451000128EC08F0E4
:1032F0000B01332B66EF19F0020E346F0001D9EC8D
:1033000006F08C989598BEEF1AF00B01126B010E27
:10331000136F146B156B166B176B0B0E2D6F130E53
:103320002C6F000106EF0EF001C012FB0B011353CE
:10333000D8A49DEF19F0A0EF19F0122D8DEF19F020
:103340001353D8A4A6EF19F00BEF1CF0000149ECC1
:103350000EF001C017FB010E0B0117250708D8A0BE
:10336000B8EF19F0000168EC0EF00B010BEF1CF048
:1033700080C215FB036A15514E0FE96E020E032041
:10338000EA6EEFCF12FB186B1A6B196B1C6B1B6B81
:1033900080C215FB036A15514E0FE96E020E032021
:1033A000EA6EEFCF12FB000149EC0EF001C018FBF2
:1033B000020E0B011525FF0F036A4E0FE96E020E78
:1033C0000320EA6EEFCF1DFB030E1525FF0F036AE6
:1033D0004E0FE96E020E0320EA6EEFCF1EFB1A6B52
:1033E0001DCB19FB19CB1AFB196B1E511927000EA7
:1033F0001A23040E1525FF0F036A4E0FE96E020E05
:103400000320EA6EEFCF1FFB050E1525FF0F036AA1
:103410004E0FE96E020E0320EA6EEFCF20FB010E85
:103420001925216F000E1A21226F1C6B1FCB1BFB6D
:103430001BCB1CFB1B6B20511B27000E1C231251A6
:10344000030A0001D8B433EF1AF0050AD8B47DEFAF
:103450001AF0090AD8B48AEF1AF01F0AD8B4BCEFE0
:103460001AF0FAEF1BF0C7EF0EF001C014FB0B01CE
:103470001453D8B47BEF1AF0000168EC0EF00B0186
:103480001B2D51EF1AF01C53D8A451EF1AF01ACB90
:103490002DFB19CB2CFB00015FEF0FF079EF1AF039
:1034A0000B011B510208D8A464EF1AF01C53D8A4D6
:1034B00064EF1AF01ACB2DFB19CB2CFB000176EF31
:1034C00010F079EF1AF00B01010E2C6F030E2D6F27
:1034D000060E2E6FB2C030FBB1C02FFBB0C032FB66
:1034E000AFC031FBB4C034FBB3C033FB0001E7EF26
:1034F00011F00B01166B01EF1CF00400200E006EA2
:10350000002EFED700D01DEC12F08BEF12F00B0155
:1035100001EF1CF00B011B510208D8A4A4EF1AF014
:103520001C53D8A4A4EF1AF012CB2CFB1CCB2EFBFF
:103530001BCB2DFB1ACB30FB19CB2FFB00013FEF30
:1035400017F0B9EF1AF00B01010E316F12CB32FBFD
:103550001BCB33FB1ACB35FB19CB34FB3DC037FB00
:103560003CC036FB3FC039FB3EC038FB000100ECDD
:1035700017F00B0101EF1CF004EF19F01CCB24FB3A
:103580001BCB23FB060E0B011525FF0F036A4E0F05
:10359000E96E020E0320EA6EEFCF25FB070E15251C
:1035A000FF0F036A4E0FE96E020E0320EA6EEFCFA3
:1035B00026FB080E1525FF0F036A4E0FE96E020E5B
:1035C0000320EA6EEFCF27FB296B286B296B26CBF4
:1035D00028FB28CB29FB286B27512827000E2923FD
:1035E000090E1525FF0F036A4E0FE96E020E032028
:1035F000EA6EEFCF26FB0A0E1525FF0F036A4E0F6A
:10360000E96E020E0320EA6EEFCF27FB2B6B2A6BCD
:103610002B6B26CB2AFB2ACB2BFB2A6B27512A2785
:10362000000E2B2323510208D8A4F7EF1BF02453DC
:10363000D8A4F7EF1BF019517208D8A42FEF1BF094
:103640001A510208D8A42FEF1BF029CB3DF028CB4C
:103650003CF02BCB3FF02ACB3EF0F7EF1BF019519B
:103660007408D8A443EF1BF01A510208D8A443EF02
:103670001BF029CB41F028CB40F02BCB43F02ACBD9
:1036800042F0F7EF1BF019517608D8A457EF1BF062
:103690001A510208D8A457EF1BF029CB45F028CBCC
:1036A00044F02BCB47F02ACB46F0F7EF1BF0195133
:1036B0007808D8A46BEF1BF01A510208D8A46BEF5E
:1036C0001BF029CB49F028CB48F02BCB4BF02ACB71
:1036D0004AF0F7EF1BF019518008D8A47FEF1BF0D8
:1036E0001A510208D8A47FEF1BF029CB4DF028CB4C
:1036F0004CF02BCB4FF02ACB4EF0F7EF1BF01951CB
:103700000208D8A493EF1BF01A510208D8A493EF33
:103710001BF029CB51F028CB50F02BCB53F02ACB08
:1037200052F0F7EF1BF019518408D8A4A7EF1BF053
:103730001A510208D8A4A7EF1BF029CB55F028CBCB
:1037400054F02BCB57F02ACB56F0F7EF1BF0195162
:103750008608D8A4BBEF1BF01A510208D8A4BBEF0F
:103760001BF029CB59F028CB58F02BCB5BF02ACBA0
:103770005AF0F7EF1BF019518808D8A4CFEF1BF0CF
:103780001A510208D8A4CFEF1BF029CB5DF028CB4B
:103790005CF02BCB5FF02ACB5EF0F7EF1BF01951FA
:1037A0009008D8A4E3EF1BF01A510208D8A4E3EF65
:1037B0001BF029CB61F028CB60F02BCB63F02ACB38
:1037C00062F0F7EF1BF019519208D8A4F7EF1BF045
:1037D0001A510208D8A4F7EF1BF029CB65F028CBCB
:1037E00064F02BCB67F02ACB66F0F7EF1BF001EF0C
:1037F0001CF000011DEC12F0010E0B01166F01EF21
:103800001CF01653D8B407EF1CF007EF1CF016534A
:10381000D8A48DEF19F00001C3EF32F00201346B30
:1038200000012DEC0DF0F80EF66E070EF76E3DEC74
:103830000DF00D0E04009EA81AEF1CF0AD6E0A0EDE
:1038400004009EA820EF1CF0AD6EDDEF32F0050EF7
:103850000B01126F136B146B166B156B165106016F
:10386000895DD8A02CEF1DF0D8A440EF1CF0885142
:103870000B01155DD8A003D006012CEF1DF0060149
:103880000B011353D8A4BCEF1CF0940E1525E96E60
:10389000040E1621EA6EEF503A08D8A4BAEF1CF0D5
:1038A000010E155D176F000E1659186F940E17252F
:1038B000E96E040E1821EA6EEF505408D8A4BAEF4E
:1038C0001CF0020E155D196F000E16591A6F940E3A
:1038D0001925E96E040E1A21EA6EEF504308D8A4A8
:1038E000BAEF1CF0030E155D1B6F000E16591C6F0E
:1038F000940E1B25E96E040E1C21EA6EEF50410860
:10390000D8A4BAEF1CF0040E155D1D6F000E1659F9
:103910001E6F940E1D25E96E040E1E21EA6EEF50F7
:103920004708D8A4BAEF1CF0050E155D1F6F000EF6
:103930001659206F940E1F25E96E040E2021EA6EA1
:10394000EF504308D8A4BAEF1CF0060E155D216FA6
:10395000000E1659226F940E2125E96E040E2221C5
:10396000EA6EEF502B08D8A4BAEF1CF0010E136FCB
:1039700015CB14FB26EF1DF0132D26EF1DF0940E32
:103980001525E96E040E1621EA6EEF503008D8A412
:10399000F3EF1CF0010E155D176F000E1659186F2E
:1039A000940E1725E96E040E1821EA6EEF502C08CC
:1039B000D8A4F3EF1CF0020E155D196F000E165916
:1039C0001A6F940E1925E96E040E1A21EA6EEF5053
:1039D0003108D8A4F3EF1CF0126B06012CEF1DF098
:1039E00025EF1DF00B01940E1525E96E040E16212E
:1039F000EA6EEF503108D8A426EF1DF0010E155DD8
:103A0000176F000E1659186F940E1725E96E040EE5
:103A10001821EA6EEF502C08D8A426EF1DF0020EF4
:103A2000155D196F000E16591A6F940E1925E96E5F
:103A3000040E1A21EA6EEF503108D8A426EF1DF0CB
:103A4000010E126F06012CEF1DF00B01152BD8B4DF
:103A5000162B2EEF1CF006010B0112CB01F000011A
:103A6000F5EF32F0010E0B01136F0201346B000110
:103A70002DEC0DF0C20EF66E070EF76E3DEC0DF05C
:103A80000D0E04009EA841EF1DF0AD6E0A0E04005D
:103A90009EA847EF1DF0AD6E020E0B011B6F0001DB
:103AA00053EC0DF002013453D8A4BFEF1DF00B010D
:103AB000132D01D003D00201BFEF1DF0156B146B65
:103AC00015510601895DD8A0BBEF1DF0D8A472EF97
:103AD0001DF088510B01145DD8A003D00601BBEF87
:103AE0001DF00601940E0B011425E96E040E15213C
:103AF000EA6EEF500A08D8A4B6EF1DF0010E145D6F
:103B0000166F000E1559176F940E1625E96E040EE8
:103B10001721EA6EEF500D08D8A4B6EF1DF0020E83
:103B2000145D186F000E1559196F940E1825E96E63
:103B3000040E1921EA6EEF504B08D8A4B6EF1DF021
:103B4000030E145D1A6F000E15591B6F940E1A2583
:103B5000E96E040E1B21EA6EEF504F08D8A4B6EFB1
:103B60001DF0136B0601BBEF1DF00B01142BD8B435
:103B7000152B60EF1DF0000152EF1DF002010B014B
:103B800013CB01F00001E5EF1FF0010E0B01136FE5
:103B90000201346B00012DEC0DF0DC0EF66E070E09
:103BA000F76E3DEC0DF00D0E04009EA8D4EF1DF055
:103BB000AD6E0A0E04009EA8DAEF1DF0AD6E020E87
:103BC0000B011B6F000153EC0DF002013453D8A41C
:103BD00052EF1EF00B01132D01D003D0020152EF62
:103BE0001EF0156B146B15510601895DD8A04EEFC0
:103BF0001EF0D8A405EF1EF088510B01145DD8A06B
:103C000003D006014EEF1EF00601940E0B011425A1
:103C1000E96E040E1521EA6EEF500A08D8A449EFA8
:103C20001EF0010E145D166F000E1559176F940EDD
:103C30001625E96E040E1721EA6EEF500D08D8A480
:103C400049EF1EF0020E145D186F000E1559196F22
:103C5000940E1825E96E040E1921EA6EEF504B08F8
:103C6000D8A449EF1EF0030E145D1A6F000E15590B
:103C70001B6F940E1A25E96E040E1B21EA6EEF509D
:103C80004F08D8A449EF1EF0136B06014EEF1EF04B
:103C90000B01142BD8B4152BF3EF1DF00001E5EF49
:103CA0001DF002010B0113CB01F00001F3EF1FF037
:103CB000010E0B01136F146B156B166B176B000164
:103CC0002DEC0DF0EA0EF66E070EF76E3DEC0DF0E2
:103CD0000D0E04009EA869EF1EF0AD6E0A0E0400E2
:103CE0009EA86FEF1EF0AD6E080E0B011B6FFA0E53
:103CF000346F0001D9EC06F00B011B2FF8D7020E30
:103D00001B6F000153EC0DF00201346B3453D8A447
:103D1000D8EF1FF00B01132D01D003D00201D8EF13
:103D20001FF0146B156B166B196B186B195106018C
:103D3000895DD8A0D5EF1FF0D8A4A6EF1EF00B0127
:103D400018510601885DD8A0D5EF1FF00B01145360
:103D5000D8A448EF1FF01653D8A448EF1FF0940ED4
:103D60001825E96E040E1921EA6EEF503A08D8A41E
:103D700046EF1FF0010E185D1B6F000E19591C6FE6
:103D8000940E1B25E96E040E1C21EA6EEF505208BA
:103D9000D8A446EF1FF0020E185D1D6F000E1959D2
:103DA0001E6F940E1D25E96E040E1E21EA6EEF5063
:103DB0004408D8A446EF1FF0030E185D1F6F000ED5
:103DC0001959206F940E1F25E96E040E2021EA6E0A
:103DD000EF504408D8A446EF1FF0040E185D216F81
:103DE000000E1959226F940E2125E96E040E22212E
:103DF000EA6EEF504108D8A446EF1FF0050E185D9B
:103E0000236F000E1959246F940E2325E96E040EBA
:103E10002421EA6EEF505008D8A446EF1FF0060E9A
:103E2000185D256F000E1959266F940E2525E96E31
:103E3000040E2621EA6EEF504708D8A446EF1FF083
:103E4000070E185D276F000E1959286F940E27254D
:103E5000E96E040E2821EA6EEF504308D8A446EF1D
:103E60001FF0080E185D296F000E19592A6F940E65
:103E70002925E96E040E2A21EA6EEF502B08D8A4FA
:103E800046EF1FF0010E146F18CB15FBD0EF1FF09B
:103E9000142D87EF1FF01653D8A487EF1FF0940E50
:103EA0001825E96E040E1921EA6EEF502208D8A4F5
:103EB00085EF1FF0172B17510208D8A485EF1FF0CC
:103EC000176B15CB1AFB1953D8A46CEF1FF01851C0
:103ED0001A5DD8B085EF1FF0940E1A25E96E040E16
:103EE000EA6ED8B0EA2AEF502E08D8A482EF1FF06D
:103EF000172B17510308D8A482EF1FF0010E166F7D
:103F000085EF1FF01A2B63EF1FF0D0EF1FF0142D79
:103F1000D0EF1FF0162DD0EF1FF0940E1825E96E8C
:103F2000040E1921EA6EEF500A08D8A4D0EF1FF052
:103F3000010E185D1B6F000E19591C6F940E1B2586
:103F4000E96E040E1C21EA6EEF500D08D8A4D0EFE4
:103F50001FF0020E185D1D6F000E19591E6F940E92
:103F60001D25E96E040E1E21EA6EEF504B08D8A401
:103F7000D0EF1FF0030E185D1F6F000E1959206F50
:103F8000940E1F25E96E040E2021EA6EEF504F08B3
:103F9000D8A4D0EF1FF0136B0601D5EF1FF00B0173
:103FA000182BD8B4192B96EF1EF0020186EF1EF0E5
:103FB0000B0113CB01F0000101EF20F00B01126B9C
:103FC00000012DEC0DF032EF1DF001C012FB0B01D2
:103FD0001253D8B4EEEF1FF00AEF20F000012DECE1
:103FE0000DF0C5EF1DF001C012FB0B011253D8B448
:103FF000FCEF1FF00AEF20F000012DEC0DF058EF60
:104000001EF001C012FB0B011253D8B40AEF20F0CE
:104010000AEF20F012CB01F000011FEF33F00B018B
:10402000126B0A011A51FF08D8A41DEF20F0010EEF
:104030000B01126F36EF20F00A011A51195DD8A456
:1040400028EF20F0010E0401936F37EF20F00A01F2
:10405000010E1A25195DD8A436EF20F00001A6EC58
:1040600005F026EC06F0010E0B01126F04010B01A6
:1040700012CB01F000014CEF33F00B011E6B1D530E
:10408000D8A454EF20F01C53D8A454EF20F01B53B5
:10409000D8A454EF20F01A510908D8A054EF20F00A
:1040A000010E1E6F6DEF21F01D53D8A469EF20F0B3
:1040B0001C53D8A469EF20F01B53D8A469EF20F05B
:1040C0001A516308D8A069EF20F0020E1E6F6DEF41
:1040D00021F01D53D8A482EF20F01C53D8A482EF06
:1040E00020F01B510308D8A082EF20F0D8A47EEF67
:1040F00020F01A51E708D8A082EF20F0030E1E6FBF
:104100006DEF21F01D53D8A49BEF20F01C53D8A4D1
:104110009BEF20F01B512708D8A09BEF20F0D8A4DC
:1041200097EF20F01A510F08D8A09BEF20F0040E53
:104130001E6F6DEF21F01D53D8A4B8EF20F01C5175
:104140000108D8A0B8EF20F0D8A4B4EF20F01B519C
:104150008608D8A0B8EF20F0D8A4B4EF20F01A5108
:104160009F08D8A0B8EF20F0050E1E6F6DEF21F06C
:104170001D53D8A4D5EF20F01C510F08D8A0D5EFBF
:1041800020F0D8A4D1EF20F01B514208D8A0D5EFE1
:1041900020F0D8A4D1EF20F01A513F08D8A0D5EFD5
:1041A00020F0060E1E6F6DEF21F01D53D8A4F2EF24
:1041B00020F01C519808D8A0F2EF20F0D8A4EEEF20
:1041C00020F01B519608D8A0F2EF20F0D8A4EEEF13
:1041D00020F01A517F08D8A0F2EF20F0070E1E6FD2
:1041E0006DEF21F01D510508D8A00BEF21F0D8A4E8
:1041F00007EF21F01C51F508D8A00BEF21F0D8A44F
:1042000007EF21F01B51E008D8A00BEF21F0080EBA
:104210001E6F6DEF21F01D513B08D8A024EF21F057
:10422000D8A420EF21F01C519A08D8A024EF21F047
:10423000D8A420EF21F01B51C908D8A024EF21F009
:10424000090E1E6F6DEF21F01D515408D8A03DEFEF
:1042500021F0D8A439EF21F01C510B08D8A03DEF74
:1042600021F0D8A439EF21F01B51E308D8A03DEF8D
:1042700021F00A0E1E6F6DEF21F01D514808D8A0E5
:1042800056EF21F0D8A452EF21F01C517608D8A0A7
:1042900056EF21F0D8A452EF21F01B51E708D8A027
:1042A00056EF21F00B0E1E6F6DEF21F01D51D4085B
:1042B000D8A06DEF21F0D8A46BEF21F01C51A50818
:1042C000D8A06DEF21F0D8A46BEF21F01B510F089F
:1042D000D8A06DEF21F00C0E1E6F1ECB01F0000177
:1042E00012000B01126B060192510408D8B058EF6E
:1042F00022F0050E0201926F010E925D06018A27DF
:1043000002019251030DF35006018A270B01136B32
:10431000020192510B01135DD8B055EF22F01351F9
:104320000A0119250B01156F4F6B4E6F516B090E6A
:10433000506F000195EC05F002C015FB01C014FBA5
:10434000950E0B010124E96E060E0220EA6EEFCFF6
:1043500016FBECCF17FBECCF18FBECCF19FB19CBFE
:104360001DFB18CB1CFB17CB1BFB16CB1AFB00014C
:104370003DEC20F001C012FB0B01125106018A270F
:104380000B0113510A0119250B01156F4F6B4E6F6D
:10439000516B090E506F000195EC05F001C014FB44
:1043A000040E0B010124016E000E0220036E015069
:1043B000950FE96E060E0320EA6EECCF15FBED5269
:1043C000EFCF14FB1D6B1C6B15CB1BFB14CB1AFB27
:1043D00000013DEC20F001C012FB0B01125106015F
:1043E0008A270B0113510A0119250B01156F4F6B19
:1043F0004E6F516B090E506F000195EC05F001C036
:1044000014FB060E0B010124016E000E0220036E48
:104410000150950FE96E060E0320EA6EECCF15FBF6
:10442000ED52EFCF14FB1D6B1C6B15CB1BFB14CB9C
:104430001AFB00013DEC20F001C012FB0B011251F0
:1044400006018A270B0113510A0119250B01156F6B
:104450004F6B4E6F516B090E506F000195EC05F0DC
:1044600002C015FB01C014FB080E0B010124016EF4
:10447000000E0220036E0150950FE96E060E032018
:10448000EA6EEFCF14FB1D6B1C6B1B6B14CB1AFB7E
:1044900000013DEC20F001C012FB0B01125106019E
:1044A0008A270B01132B88EF21F014EF23F006016C
:1044B000010E0201926F9251030DF35006018A27FB
:1044C0000B014F6B19CA4EFB516B090E506F000167
:1044D00095EC05F002C015FB01C014FB950E0B0115
:1044E0000124E96E060E0220EA6EEFCF16FBECCF38
:1044F00017FBECCF18FBECCF19FB19CB1DFB18CB2E
:104500001CFB17CB1BFB16CB1AFB00013DEC20F06C
:1045100001C012FB0B01125106018A270B014F6BE0
:1045200019CA4EFB516B090E506F000195EC05F056
:1045300001C014FB040E0B010124016E000E0220C9
:10454000036E0150950FE96E060E0320EA6EECCF64
:1045500015FBED52EFCF14FB1D6B1C6B15CB1BFB3A
:1045600014CB1AFB00013DEC20F001C012FB0B0143
:10457000125106018A270B014F6B19CA4EFB516B72
:10458000090E506F000195EC05F001C014FB060EFA
:104590000B010124016E000E0220036E0150950FE5
:1045A000E96E060E0320EA6EECCF15FBED52EFCF5D
:1045B00014FB1D6B1C6B15CB1BFB14CB1AFB0001F2
:1045C0003DEC20F001C012FB0B01125106018A27BD
:1045D0000B014F6B19CA4EFB516B090E506F000156
:1045E00095EC05F002C015FB01C014FB080E0B0191
:1045F0000124016E000E0220036E0150950FE96E3A
:10460000060E0320EA6EEFCF14FB1D6B1C6B1B6BB9
:1046100014CB1AFB00013DEC20F001C012FB0B0192
:10462000125106018A270B010001BDEF23F009009A
:10463000F6CF50FBF7CF51FBF55004009EA81DEFBD
:1046400023F0AD6E50CBF6FF51CBF7FF0B014F2F90
:1046500001D003D0000117EF23F000011200015038
:104660004FCB51FB640E0B01526F0001F3EC06F0CF
:1046700000C04FFB0150300ED8A44AEF23F00B01CD
:1046800050A355EF23F050B755EF23F050B9200E4B
:104690004EEF23F00B0150975099508101260150A5
:1046A00004009EA850EF23F0AD6E4FCB51FB0A0ED5
:1046B000526F0001F3EC06F000C04FFB0150300ECA
:1046C000D8A46DEF23F00B0150B775EF23F050A184
:1046D00075EF23F050B9200E0001012601500400AF
:1046E0009EA86FEF23F0AD6E0B01300E4F274F5198
:1046F00004009EA878EF23F0AD6E000112003C0E7E
:1047000006018B6F420E8A6F0201346B00012DECA3
:104710000DF00A011A51195DD8B097EF23F0195125
:104720001A5D010F0601926FAEEF23F00A011951D5
:104730001A5DD8A4A2EF23F0010E0601926FAEEF2E
:1047400023F00A01640ED88019550B01126F010E77
:104750000A011A250B0112250601926F640ED880FA
:104760000A0119550408D8A0BAEF23F0010E06017A
:10477000926F0A01000171EF21F07A0EF66E080EB9
:10478000F76E0C0E0B014F6F000117EC23F08AC679
:104790004FFB1B0E0B01506F00012FEC23F02C0E72
:1047A00004009EA8D0EF23F0AD6E8BC64FFB1B0E0E
:1047B0000B01506F00012FEC23F00D0E04009EA89A
:1047C000DEEF23F0AD6E59EF33F0EACF57FBE9CFC0
:1047D00056FB0B015039F009526F5227E20F536F0D
:1047E000320F556F50510F0B532753275527E90FA1
:1047F000546F542754274F390F0B542755275437DC
:104800005537551F55374F510F0B55275237070E48
:10481000516F0A0E54075527D8A00AEF24F053070A
:104820005427D8A00FEF24F052075327D8A014EF35
:1048300024F051075227D8A019EF24F00B0EEA6E8E
:10484000510EE96E070E5615569DE926000EEA2216
:10485000E9505508D8A433EF24F0EA500B08D8A447
:1048600033EF24F0568DEF50006ED8A444EF24F0BF
:1048700056BD44EF24F056B94EEF24F056B744EF3E
:1048800024F0200E47EF24F056875699300E00266C
:10489000005004009EA849EF24F0AD6EEE5056ADD6
:1048A00028EF24F000011200D8B25BEF24F00B0EC9
:1048B000EA6E630EE96E006A016A026A036A0B011E
:1048C000636B646B656B666B6251611160115F11A4
:1048D000D8B4A0EF24F0200E676FD8905B375C3718
:1048E0005D375E3763376437653766376251665DBB
:1048F000D8A487EF24F06151655DD8A487EF24F038
:104900006051645DD8A487EF24F05F51635DD8A047
:1049100099EF24F05F51635F6051D8A0603D645F00
:104920006151D8A0613D655F6251D8A0623D665F6C
:10493000D8800036013602360336672F6DEF24F03B
:1049400063CBEFFF64CBECFF65CBECFF66CBECFFFA
:1049500000011200E9500B01536F3B0E5A6F9A0E83
:10496000596FCA0E586F576B0A0E556FD8820B0ECF
:10497000EA6E4F0EE96E52CB5EFB51CB5DFB50CB26
:104980005CFB4FCB5BFB5ACB62FB59CB61FB58CB3B
:1049900060FB57CB5FFB000154EC24F00150005248
:1049A000D8A4F0EF24F00B015551010AD8A403D08C
:1049B0000001F0EF24F05351D8B4F2EF24F00F0BC4
:1049C000555DD8B4E7EF24F0D8B0FAEF24F053BF28
:1049D000FAEF24F053BDF2EF24F0200EF3EF24F0B1
:1049E0000B01536B300E0026005004009EA8F5EF1B
:1049F00024F0AD6ED8925ACB5EFB59CB5DFB58CB01
:104A00005CFB57CB5BFB626B616B606B0A0E5F6F8D
:104A1000000154EC24F003C05AFB02C059FB01C052
:104A200058FB00C057FB0B01552FB6EF24F00001D7
:104A30001200010E0B01126F136B156B146B1551E5
:104A40000601895DD8A0AFEF25F0D8A431EF25F09D
:104A500088510B01145DD8A003D00601AFEF25F0FB
:104A60000601940E0B011425E96E040E1521EA6E61
:104A7000EF505408D8A4A9EF25F0010E145D186F6B
:104A8000000E1559196F940E1825E96E040E1921A0
:104A9000EA6EEF504308D8A4A9EF25F0020E145D8A
:104AA0001A6F000E15591B6F940E1A25E96E040E2D
:104AB0001B21EA6EEF504508D8A4A9EF25F0030E9C
:104AC000145D1C6F000E15591D6F940E1C25E96EA8
:104AD000040E1D21EA6EEF504E08D8A4A9EF25F070
:104AE000040E145D1E6F000E15591F6F940E1E25C7
:104AF000E96E040E1F21EA6EEF504E08D8A4A9EF0C
:104B000025F0050E145D206F000E1559216F940ECF
:104B10002025E96E040E2121EA6EEF504F08D8A43B
:104B2000A9EF25F0060E145D226F000E1559236FB4
:104B3000940E2225E96E040E2321EA6EEF504308FD
:104B4000D8A4A9EF25F0010E136F0601AFEF25F0F1
:104B50000B01142BD8B4152B1FEF25F006010B0108
:104B60001353D8B4C1EF2AF0060192510508D8B00A
:104B70006EEF29F0050E0201926F0B014F6B19CAFF
:104B80004EFB516B090E506F000195EC05F002C011
:104B900019FB01C018FB950E0B010124E96E060EEE
:104BA0000220EA6EEFCF1AFBECCF1BFBECCF1CFB15
:104BB000ECCF1DFB4F6B19CA4EFB516B090E506FAA
:104BC000000195EC05F001C01EFB040E0B01012451
:104BD000016E000E0220036E0150950FE96E060E65
:104BE0000320EA6EECCF1FFBED52EFCF1EFB4F6BA5
:104BF00019CA4EFB516B090E506F000195EC05F080
:104C000001C020FB060E0B010124016E000E0220E4
:104C1000036E0150950FE96E060E0320EA6EECCF8D
:104C200021FBED52EFCF20FB0A011951192B0B018B
:104C3000236F4F6B4E6F516B090E506F000195EC57
:104C400005F002C023FB01C022FB080E0B0101246A
:104C5000016E000E0220036E0150950FE96E060EE4
:104C60000320EA6EEFCF22FB4F6B19CA4EFB516B4C
:104C7000090E506F000195EC05F002C024FB01C045
:104C800023FB950E0B010124E96E060E0220EA6E4D
:104C9000EFCF25FBECCF26FBECCF27FBECCF28FB9F
:104CA0004F6B19CA4EFB516B090E506F000195EC0A
:104CB00005F001C029FB040E0B010124016E000E5A
:104CC0000220036E0150950FE96E060E0320EA6E76
:104CD000ECCF2AFBED52EFCF29FB4F6B19CA4EFBED
:104CE000516B090E506F000195EC05F001C02BFBD4
:104CF000060E0B010124016E000E0220036E01500E
:104D0000950FE96E060E0320EA6EECCF2CFBED52F8
:104D1000EFCF2BFB0A011951192B0B012E6F4F6B93
:104D20004E6F516B090E506F000195EC05F002C0FB
:104D30002EFB01C02DFB080E0B010124016E000E9D
:104D40000220036E0150950FE96E060E0320EA6EF5
:104D5000EFCF2DFB4F6B19CA4EFB516B090E506FF5
:104D6000000195EC05F002C02FFB01C02EFB950E53
:104D70000B010124E96E060E0220EA6EEFCF30FB34
:104D8000ECCF31FBECCF32FBECCF33FB4F6B19CACE
:104D90004EFB516B090E506F000195EC05F001C000
:104DA00034FB040E0B010124016E000E0220036E81
:104DB0000150950FE96E060E0320EA6EECCF35FB2D
:104DC000ED52EFCF34FB4F6B19CA4EFB516B090EFE
:104DD000506F000195EC05F001C036FB060E0B018B
:104DE0000124016E000E0220036E0150950FE96E42
:104DF000060E0320EA6EECCF37FBED52EFCF36FB09
:104E00000A011951192B0B01396F4F6B4E6F516B02
:104E1000090E506F000195EC05F002C039FB01C08E
:104E200038FB080E0B010124016E000E0220036EF8
:104E30000150950FE96E060E0320EA6EEFCF38FBA6
:104E40004F6B19CA4EFB516B090E506F000195EC68
:104E500005F002C03AFB01C039FB950E0B0101249D
:104E6000E96E060E0220EA6EEFCF3BFBECCF3CFB77
:104E7000ECCF3DFBECCF3EFB4F6B19CA4EFB516BA9
:104E8000090E506F000195EC05F001C03FFB040EC8
:104E90000B010124016E000E0220036E0150950FDC
:104EA000E96E060E0320EA6EECCF40FBED52EFCF29
:104EB0003FFB4F6B19CA4EFB516B090E506F00013F
:104EC00095EC05F001C041FB060E0B010124016EBB
:104ED000000E0220036E0150950FE96E060E0320AE
:104EE000EA6EECCF42FBED52EFCF41FB0A011951C4
:104EF000192B0B01446F4F6B4E6F516B090E506FA6
:104F0000000195EC05F002C044FB01C043FB080E14
:104F10000B010124016E000E0220036E0150950F5B
:104F2000E96E060E0320EA6EEFCF43FB4F6B19CA02
:104F30004EFB516B090E506F000195EC05F002C05D
:104F400045FB01C044FB950E0B010124E96E060EE2
:104F50000220EA6EEFCF46FBECCF47FBECCF48FBDD
:104F6000ECCF49FB4F6B19CA4EFB516B090E506FCA
:104F7000000195EC05F001C04AFB040E0B01012471
:104F8000016E000E0220036E0150950FE96E060EB1
:104F90000320EA6EECCF4BFBED52EFCF4AFB4F6B99
:104FA00019CA4EFB516B090E506F000195EC05F0CC
:104FB00001C04CFB060E0B010124016E000E022005
:104FC000036E0150950FE96E060E0320EA6EECCFDA
:104FD0004DFBED52EFCF4CFB4F6B19CA4EFB516BA3
:104FE000090E506F000195EC05F001C04EFB080E54
:104FF0000B010124016E000E0220036E0150950F7B
:10500000E96E060E0320EA6EEFCF4EFB8E0EF66EB3
:10501000080EF76E360E4F6F000117EC23F092C2A8
:105020004FFB1B0E0B01506F00012FEC23F0C60E3F
:10503000F66E080EF76E030E0B014F6F000117ECB2
:1050400023F0100EE96E94C250FB93C24FFBE5ECC7
:1050500023F0CC0EF66E080EF76E030E0B014F6FA9
:10506000000117EC23F095C24FFB1B0E0B01506F94
:1050700000012FEC23F0D10EF66E080EF76E030E32
:105080000B014F6F000117EC23F0410EE96E1DCBB1
:1050900052FB1CCB51FB1BCB50FB1ACB4FFBAAEC9A
:1050A00024F0240E04009EA852EF28F0AD6E100EDE
:1050B000E96E1FCB50FB1ECB4FFBE5EC23F0240E1B
:1050C00004009EA860EF28F0AD6E100EE96E21CBB3
:1050D00050FB20CB4FFBE5EC23F0240E04009EA8F0
:1050E0006EEF28F0AD6E22CB4FFB1B0E0B01506F05
:1050F00000012FEC23F07C0E04009EA87CEF28F02A
:10510000AD6E410EE96E28CB52FB27CB51FB26CB6F
:1051100050FB25CB4FFBAAEC24F0240E04009EA8E4
:105120008EEF28F0AD6E100EE96E2ACB50FB29CB26
:105130004FFBE5EC23F0240E04009EA89CEF28F022
:10514000AD6E100EE96E2CCB50FB2BCB4FFBE5EC7C
:1051500023F0240E04009EA8AAEF28F0AD6E2DCBFC
:105160004FFB1B0E0B01506F00012FEC23F07C0E48
:1051700004009EA8B8EF28F0AD6E410EE96E33CB67
:1051800052FB32CB51FB31CB50FB30CB4FFBAAEC67
:1051900024F0240E04009EA8CAEF28F0AD6E100E75
:1051A000E96E35CB50FB34CB4FFBE5EC23F0240EFE
:1051B00004009EA8D8EF28F0AD6E100EE96E37CB34
:1051C00050FB36CB4FFBE5EC23F0240E04009EA8E9
:1051D000E6EF28F0AD6E38CB4FFB1B0E0B01506F86
:1051E00000012FEC23F07C0E04009EA8F4EF28F0C1
:1051F000AD6E410EE96E3ECB52FB3DCB51FB3CCB3D
:1052000050FB3BCB4FFBAAEC24F0240E04009EA8DD
:1052100006EF29F0AD6E100EE96E40CB50FB3FCB90
:105220004FFBE5EC23F0240E04009EA814EF29F0B8
:10523000AD6E100EE96E42CB50FB41CB4FFBE5EC5F
:1052400023F0240E04009EA822EF29F0AD6E43CB7C
:105250004FFB1B0E0B01506F00012FEC23F07C0E57
:1052600004009EA830EF29F0AD6E410EE96E49CBE7
:1052700052FB48CB51FB47CB50FB46CB4FFBAAEC34
:1052800024F0240E04009EA842EF29F0AD6E100E0B
:10529000E96E4BCB50FB4ACB4FFBE5EC23F0240EE1
:1052A00004009EA850EF29F0AD6E100EE96E4DCBB4
:1052B00050FB4CCB4FFBE5EC23F0240E04009EA8E2
:1052C0005EEF29F0AD6E4ECB4FFB1B0E0B01506F06
:1052D00000012FEC23F059EF2AF00601010E020124
:1052E000926F0B014F6B19CA4EFB516B090E506F39
:1052F000000195EC05F002C019FB01C018FB950EEA
:105300000B010124E96E060E0220EA6EEFCF1AFBB4
:10531000ECCF1BFBECCF1CFBECCF1DFB4F6B19CA7A
:105320004EFB516B090E506F000195EC05F001C06A
:105330001EFB040E0B010124016E000E0220036E01
:105340000150950FE96E060E0320EA6EECCF1FFBAD
:10535000ED52EFCF1EFB4F6B19CA4EFB516B090E7E
:10536000506F000195EC05F001C020FB060E0B010B
:105370000124016E000E0220036E0150950FE96EAC
:10538000060E0320EA6EECCF21FBED52EFCF20FB9F
:105390004F6B19CA4EFB516B090E506F000195EC13
:1053A00005F002C023FB01C022FB080E0B01012403
:1053B000016E000E0220036E0150950FE96E060E7D
:1053C0000320EA6EEFCF22FB200EF66E090EF76E79
:1053D000360E4F6F000117EC23F092C24FFB1B0EED
:1053E0000B01506F00012FEC23F0580EF66E090EE2
:1053F000F76E030E0B014F6F000117EC23F0100E38
:10540000E96E94C250FB93C24FFBE5EC23F05E0EB5
:10541000F66E090EF76E030E0B014F6F000117ECCD
:1054200023F095C24FFB1B0E0B01506F00012FECB8
:1054300023F0630EF66E090EF76E030E0B014F6F2D
:10544000000117EC23F0410EE96E1DCB52FB1CCB83
:1054500051FB1BCB50FB1ACB4FFBAAEC24F0240EC4
:1054600004009EA830EF2AF0AD6E100EE96E1FCB3F
:1054700050FB1ECB4FFBE5EC23F0240E04009EA84E
:105480003EEF2AF0AD6E100EE96E21CB50FB20CB23
:105490004FFBE5EC23F0240E04009EA84CEF2AF00D
:1054A000AD6E22CB4FFB1B0E0B01506F00012FEC9A
:1054B00023F0020E0B01186F960E346F0001D9EC29
:1054C00006F00B01182FF8D7176B166B1751060152
:1054D000895DD8A0C2EF2AF0D8A478EF2AF08851CD
:1054E0000B01165DD8A003D00601C2EF2AF0060119
:1054F000940E0B011625E96E040E1721EA6EEF508B
:105500000A08D8A4BCEF2AF0010E165D186F000E31
:105510001759196F940E1825E96E040E1921EA6EB9
:10552000EF500D08D8A4BCEF2AF0020E165D1A6FDA
:10553000000E17591B6F940E1A25E96E040E1B21DD
:10554000EA6EEF504B08D8A4BCEF2AF0030E165DAC
:105550001C6F000E17591D6F940E1C25E96E040E6A
:105560001D21EA6EEF504F08D8A4BCEF2AF0126B51
:105570000601C2EF2AF00B01162BD8B4172B66EFE9
:105580002AF006010B0112CB01F0000188EF33F085
:105590000201346B00012DEC0DF0760EF66E090E53
:1055A000F76E3DEC0DF00D0E04009EA8D4EF2AF02E
:1055B000AD6E0A0E04009EA8DAEF2AF0AD6EB8EFC9
:1055C00033F0010E0B01126F136B146B156B166B1E
:1055D000186B176B18510601895DD8A04BEF2CF0A2
:1055E000D8A4FCEF2AF088510B01175DD8A003D096
:1055F00006014BEF2CF006010B011353D8A447EF23
:105600002BF01453D8A447EF2BF0940E1725E96E16
:10561000040E1821EA6EEF500A08D8A445EF2BF0CB
:10562000010E175D196F000E18591A6F940E192587
:10563000E96E040E1A21EA6EEF500D08D8A445EF6A
:105640002BF0020E175D1B6F000E18591C6F940E85
:105650001B25E96E040E1C21EA6EEF504B08D8A4FE
:1056600045EF2BF0030E175D1D6F000E18591E6FCE
:10567000940E1D25E96E040E1E21EA6EEF504F08B0
:10568000D8A445EF2BF0010E136F45EF2CF0132D2E
:10569000F6EF2BF01453D8A4F6EF2BF0940E172549
:1056A000E96E040E1821EA6EEF503A08D8A4F4EF20
:1056B0002BF0010E175D196F000E18591A6F940E1A
:1056C0001925E96E040E1A21EA6EEF505408D8A489
:1056D000F4EF2BF0020E175D1B6F000E18591C6FB4
:1056E000940E1B25E96E040E1C21EA6EEF5045084E
:1056F000D8A4F4EF2BF0030E175D1D6F000E1859A0
:105700001E6F940E1D25E96E040E1E21EA6EEF50E9
:105710004708D8A4F4EF2BF0040E175D1F6F000E9E
:105720001859206F940E1F25E96E040E2021EA6E91
:10573000EF505008D8A4F4EF2BF0050E175D216F41
:10574000000E1859226F940E2125E96E040E2221B5
:10575000EA6EEF505408D8A4F4EF2BF0060E175D54
:10576000236F000E1859246F940E2325E96E040E42
:105770002421EA6EEF505408D8A4F4EF2BF0070E62
:10578000175D256F000E1859266F940E2525E96EBA
:10579000040E2621EA6EEF504808D8A4F4EF2BF04F
:1057A000080E175D276F000E1859286F940E2725D5
:1057B000E96E040E2821EA6EEF505108D8A4F4EFE8
:1057C0002BF0090E175D296F000E18592A6F940EE1
:1057D0002925E96E040E2A21EA6EEF502B08D8A481
:1057E000F4EF2BF0010E146F45EF2CF0132D45EF65
:1057F0002CF0142D45EF2CF0940E1725E96E040EB5
:105800001821EA6EEF502C08D8A445EF2CF0162B87
:1058100016510208D8A445EF2CF0010E175D196F40
:10582000000E18591A6F940E1925E96E040E1A21EC
:10583000EA6EEF503008D8A445EF2CF0020E175D49
:105840001B6F000E18591C6F940E1B25E96E040E79
:105850001C21EA6EEF503008D8A445EF2CF0030E5F
:10586000175D1D6F000E18591E6F940E1D25E96EF1
:10587000040E1E21EA6EEF503208D8A445EF2CF03A
:10588000126B06014BEF2CF00B01172BD8B4182B21
:10589000EAEF2AF006010B0112CB01F00001D0EF74
:1058A00033F0F86AF1949F90A292F09C9F9AA59A87
:1058B000D08E078EA786080EAF6E020E7D6EA60EE6
:1058C000AC6E900EAB6EB986080E7B6E020E7C6ECF
:1058D000A60EBA6E900EA66EB66B0101286B296BF0
:1058E000030E2A6F2B6B2C6BA50E2D6F2E6B846B0A
:1058F000856B010E0201226F236B256B246B290E31
:10590000266F276B160E286F0C0E296F0F0E2A6F4D
:105910002C6B2B6B2D6B2E6B306B2F6B316B336BBA
:10592000326B346B1A0E356F376B366B386B380E43
:10593000396F3A6B220E3B6F3C6B3D6B3E6B3F6B9E
:10594000436B426B826B966B976B080E986F996BEB
:105950009A6B9B6B9C6B0401926B916B936B060132
:10596000896B886B8A6B8B6B8D6B010E8C6F8F6B69
:10597000020E8E6F070E916FCF0E906F926B936B2E
:10598000946B0A01956B2D0E966F0B01086B076BDC
:105990000C6B0B6B0A6B096B0E6B0D6B0F6B0F01B6
:1059A0005C51800B5C6F000E5D6FC196C198C19A0F
:1059B0000101886B0F015E6B5F6B0B0E0201416F83
:1059C0006A0E406F020E0B016B6FD20E6A6F6D6B29
:1059D0006C6B0001E26BE36BE46BE56BE66BE76B12
:1059E000E86BE96BEA6BEB6BEC6BED6BEE6BEF6B03
:1059F000F06BF16BF26BF36BF46BF56BF66BF76BB3
:105A0000F86BF96BFA6BFB6BFC6BFD6BFE6BFF6B62
:105A10000101006B016B026B036B046B056B066B82
:105A2000076B086B096B0A6B0B6B0C6B0D6B0E6BCA
:105A30000F6B106B116B126B136B146B156B166B7A
:105A4000176B186B196B1A6B1B6B1C6B1D6B1E6B2A
:105A50001F6B206B216B226B236B246B256B266BDA
:105A6000276B396B3A6B3B6B3C6B3D6B3E6B3F6B13
:105A7000406B416B426B436B446B456B466B476BB2
:105A8000486B496B4A6B4B6B4C6B4D6B4E6B4F6B62
:105A9000506B516B526B536B546B556B566B576B12
:105AA000586B596B5A6B5B6B5C6B5D6B5E6B5F6BC2
:105AB000606B616B626B636B646B656B666B676B72
:105AC000686B696B6A6B6B6B6C6B6D6B6E6B6F6B22
:105AD000706B716B726B736B746B756B766B776BD2
